{"abi":[{"inputs":[{"internalType":"string","name":"desc","type":"string"},{"internalType":"uint256","name":"minimum","type":"uint256"},{"internalType":"address","name":"creator","type":"address"}],"stateMutability":"nonpayable","type":"constructor"},{"inputs":[{"internalType":"uint256","name":"index","type":"uint256"}],"name":"approveRequest","outputs":[],"stateMutability":"nonpayable","type":"function"},{"inputs":[{"internalType":"address","name":"","type":"address"}],"name":"approvers","outputs":[{"internalType":"bool","name":"","type":"bool"}],"stateMutability":"view","type":"function"},{"inputs":[],"name":"approversCount","outputs":[{"internalType":"uint256","name":"","type":"uint256"}],"stateMutability":"view","type":"function"},{"inputs":[],"name":"contribute","outputs":[],"stateMutability":"payable","type":"function"},{"inputs":[{"internalType":"string","name":"desc","type":"string"},{"internalType":"uint256","name":"value","type":"uint256"},{"internalType":"address","name":"recipient","type":"address"}],"name":"createRequest","outputs":[],"stateMutability":"nonpayable","type":"function"},{"inputs":[],"name":"description","outputs":[{"internalType":"string","name":"","type":"string"}],"stateMutability":"view","type":"function"},{"inputs":[{"internalType":"uint256","name":"index","type":"uint256"}],"name":"finalizeRequest","outputs":[],"stateMutability":"payable","type":"function"},{"inputs":[],"name":"manager","outputs":[{"internalType":"address","name":"","type":"address"}],"stateMutability":"view","type":"function"},{"inputs":[],"name":"minimumContribution","outputs":[{"internalType":"uint256","name":"","type":"uint256"}],"stateMutability":"view","type":"function"},{"inputs":[{"internalType":"uint256","name":"","type":"uint256"}],"name":"requests","outputs":[{"internalType":"string","name":"description","type":"string"},{"internalType":"uint256","name":"value","type":"uint256"},{"internalType":"address","name":"recipient","type":"address"},{"internalType":"bool","name":"complete","type":"bool"},{"internalType":"uint256","name":"approvalCount","type":"uint256"}],"stateMutability":"view","type":"function"},{"inputs":[],"name":"requestsCount","outputs":[{"internalType":"uint256","name":"","type":"uint256"}],"stateMutability":"view","type":"function"},{"inputs":[],"name":"summary","outputs":[{"internalType":"string","name":"","type":"string"},{"internalType":"address","name":"","type":"address"},{"internalType":"uint256","name":"","type":"uint256"},{"internalType":"uint256","name":"","type":"uint256"},{"internalType":"uint256","name":"","type":"uint256"},{"internalType":"uint256","name":"","type":"uint256"}],"stateMutability":"view","type":"function"}],"devdoc":{"kind":"dev","methods":{},"version":1},"evm":{"assembly":"    /* \"CampaignFactory\":665:2841  contract Campaign {... */\n  mstore(0x40, 0x80)\n    /* \"CampaignFactory\":1126:1290  constructor(string memory desc, uint minimum, address creator) {... */\n  callvalue\n  dup1\n  iszero\n  tag_1\n  jumpi\n  0x00\n  dup1\n  revert\ntag_1:\n  pop\n  mload(0x40)\n  sub(codesize, bytecodeSize)\n  dup1\n  bytecodeSize\n  dup4\n  codecopy\n  dup2\n  dup2\n  add\n  0x40\n  mstore\n  dup2\n  add\n  swap1\n  tag_2\n  swap2\n  swap1\n  tag_3\n  jump\t// in\ntag_2:\n    /* \"CampaignFactory\":1209:1216  creator */\n  dup1\n    /* \"CampaignFactory\":1199:1206  manager */\n  0x01\n  0x00\n    /* \"CampaignFactory\":1199:1216  manager = creator */\n  0x0100\n  exp\n  dup2\n  sload\n  dup2\n  0xffffffffffffffffffffffffffffffffffffffff\n  mul\n  not\n  and\n  swap1\n  dup4\n  0xffffffffffffffffffffffffffffffffffffffff\n  and\n  mul\n  or\n  swap1\n  sstore\n  pop\n    /* \"CampaignFactory\":1248:1255  minimum */\n  dup2\n    /* \"CampaignFactory\":1226:1245  minimumContribution */\n  0x02\n    /* \"CampaignFactory\":1226:1255  minimumContribution = minimum */\n  dup2\n  swap1\n  sstore\n  pop\n    /* \"CampaignFactory\":1279:1283  desc */\n  dup3\n    /* \"CampaignFactory\":1265:1276  description */\n  0x00\n    /* \"CampaignFactory\":1265:1283  description = desc */\n  swap1\n  dup1\n  mload\n  swap1\n  0x20\n  add\n  swap1\n  tag_6\n  swap3\n  swap2\n  swap1\n  tag_7\n  jump\t// in\ntag_6:\n  pop\n    /* \"CampaignFactory\":1126:1290  constructor(string memory desc, uint minimum, address creator) {... */\n  pop\n  pop\n  pop\n    /* \"CampaignFactory\":665:2841  contract Campaign {... */\n  jump(tag_8)\ntag_7:\n  dup3\n  dup1\n  sload\n  tag_9\n  swap1\n  tag_10\n  jump\t// in\ntag_9:\n  swap1\n  0x00\n  mstore\n  keccak256(0x00, 0x20)\n  swap1\n  0x1f\n  add\n  0x20\n  swap1\n  div\n  dup2\n  add\n  swap3\n  dup3\n  tag_12\n  jumpi\n  0x00\n  dup6\n  sstore\n  jump(tag_11)\ntag_12:\n  dup3\n  0x1f\n  lt\n  tag_13\n  jumpi\n  dup1\n  mload\n  not(0xff)\n  and\n  dup4\n  dup1\n  add\n  or\n  dup6\n  sstore\n  jump(tag_11)\ntag_13:\n  dup3\n  dup1\n  add\n  0x01\n  add\n  dup6\n  sstore\n  dup3\n  iszero\n  tag_11\n  jumpi\n  swap2\n  dup3\n  add\ntag_14:\n  dup3\n  dup2\n  gt\n  iszero\n  tag_15\n  jumpi\n  dup3\n  mload\n  dup3\n  sstore\n  swap2\n  0x20\n  add\n  swap2\n  swap1\n  0x01\n  add\n  swap1\n  jump(tag_14)\ntag_15:\ntag_11:\n  pop\n  swap1\n  pop\n  tag_16\n  swap2\n  swap1\n  tag_17\n  jump\t// in\ntag_16:\n  pop\n  swap1\n  jump\t// out\ntag_17:\ntag_18:\n  dup1\n  dup3\n  gt\n  iszero\n  tag_19\n  jumpi\n  0x00\n  dup2\n  0x00\n  swap1\n  sstore\n  pop\n  0x01\n  add\n  jump(tag_18)\ntag_19:\n  pop\n  swap1\n  jump\t// out\n    /* \"#utility.yul\":7:428   */\ntag_21:\n    /* \"#utility.yul\":96:101   */\n  0x00\n    /* \"#utility.yul\":121:187   */\n  tag_23\n    /* \"#utility.yul\":137:186   */\n  tag_24\n    /* \"#utility.yul\":179:185   */\n  dup5\n    /* \"#utility.yul\":137:186   */\n  tag_25\n  jump\t// in\ntag_24:\n    /* \"#utility.yul\":121:187   */\n  tag_26\n  jump\t// in\ntag_23:\n    /* \"#utility.yul\":112:187   */\n  swap1\n  pop\n    /* \"#utility.yul\":210:216   */\n  dup3\n    /* \"#utility.yul\":203:208   */\n  dup2\n    /* \"#utility.yul\":196:217   */\n  mstore\n    /* \"#utility.yul\":248:252   */\n  0x20\n    /* \"#utility.yul\":241:246   */\n  dup2\n    /* \"#utility.yul\":237:253   */\n  add\n    /* \"#utility.yul\":286:289   */\n  dup5\n    /* \"#utility.yul\":277:283   */\n  dup5\n    /* \"#utility.yul\":272:275   */\n  dup5\n    /* \"#utility.yul\":268:284   */\n  add\n    /* \"#utility.yul\":265:290   */\n  gt\n    /* \"#utility.yul\":262:374   */\n  iszero\n  tag_27\n  jumpi\n    /* \"#utility.yul\":293:372   */\n  tag_28\n  tag_29\n  jump\t// in\ntag_28:\n    /* \"#utility.yul\":262:374   */\ntag_27:\n    /* \"#utility.yul\":383:422   */\n  tag_30\n    /* \"#utility.yul\":415:421   */\n  dup5\n    /* \"#utility.yul\":410:413   */\n  dup3\n    /* \"#utility.yul\":405:408   */\n  dup6\n    /* \"#utility.yul\":383:422   */\n  tag_31\n  jump\t// in\ntag_30:\n    /* \"#utility.yul\":102:428   */\n  pop\n    /* \"#utility.yul\":7:428   */\n  swap4\n  swap3\n  pop\n  pop\n  pop\n  jump\t// out\n    /* \"#utility.yul\":434:577   */\ntag_32:\n    /* \"#utility.yul\":491:496   */\n  0x00\n    /* \"#utility.yul\":522:528   */\n  dup2\n    /* \"#utility.yul\":516:529   */\n  mload\n    /* \"#utility.yul\":507:529   */\n  swap1\n  pop\n    /* \"#utility.yul\":538:571   */\n  tag_34\n    /* \"#utility.yul\":565:570   */\n  dup2\n    /* \"#utility.yul\":538:571   */\n  tag_35\n  jump\t// in\ntag_34:\n    /* \"#utility.yul\":434:577   */\n  swap3\n  swap2\n  pop\n  pop\n  jump\t// out\n    /* \"#utility.yul\":597:952   */\ntag_36:\n    /* \"#utility.yul\":664:669   */\n  0x00\n    /* \"#utility.yul\":713:716   */\n  dup3\n    /* \"#utility.yul\":706:710   */\n  0x1f\n    /* \"#utility.yul\":698:704   */\n  dup4\n    /* \"#utility.yul\":694:711   */\n  add\n    /* \"#utility.yul\":690:717   */\n  slt\n    /* \"#utility.yul\":680:802   */\n  tag_38\n  jumpi\n    /* \"#utility.yul\":721:800   */\n  tag_39\n  tag_40\n  jump\t// in\ntag_39:\n    /* \"#utility.yul\":680:802   */\ntag_38:\n    /* \"#utility.yul\":831:837   */\n  dup2\n    /* \"#utility.yul\":825:838   */\n  mload\n    /* \"#utility.yul\":856:946   */\n  tag_41\n    /* \"#utility.yul\":942:945   */\n  dup5\n    /* \"#utility.yul\":934:940   */\n  dup3\n    /* \"#utility.yul\":927:931   */\n  0x20\n    /* \"#utility.yul\":919:925   */\n  dup7\n    /* \"#utility.yul\":915:932   */\n  add\n    /* \"#utility.yul\":856:946   */\n  tag_21\n  jump\t// in\ntag_41:\n    /* \"#utility.yul\":847:946   */\n  swap2\n  pop\n    /* \"#utility.yul\":670:952   */\n  pop\n    /* \"#utility.yul\":597:952   */\n  swap3\n  swap2\n  pop\n  pop\n  jump\t// out\n    /* \"#utility.yul\":958:1101   */\ntag_42:\n    /* \"#utility.yul\":1015:1020   */\n  0x00\n    /* \"#utility.yul\":1046:1052   */\n  dup2\n    /* \"#utility.yul\":1040:1053   */\n  mload\n    /* \"#utility.yul\":1031:1053   */\n  swap1\n  pop\n    /* \"#utility.yul\":1062:1095   */\n  tag_44\n    /* \"#utility.yul\":1089:1094   */\n  dup2\n    /* \"#utility.yul\":1062:1095   */\n  tag_45\n  jump\t// in\ntag_44:\n    /* \"#utility.yul\":958:1101   */\n  swap3\n  swap2\n  pop\n  pop\n  jump\t// out\n    /* \"#utility.yul\":1107:1943   */\ntag_3:\n    /* \"#utility.yul\":1205:1211   */\n  0x00\n    /* \"#utility.yul\":1213:1219   */\n  dup1\n    /* \"#utility.yul\":1221:1227   */\n  0x00\n    /* \"#utility.yul\":1270:1272   */\n  0x60\n    /* \"#utility.yul\":1258:1267   */\n  dup5\n    /* \"#utility.yul\":1249:1256   */\n  dup7\n    /* \"#utility.yul\":1245:1268   */\n  sub\n    /* \"#utility.yul\":1241:1273   */\n  slt\n    /* \"#utility.yul\":1238:1357   */\n  iszero\n  tag_47\n  jumpi\n    /* \"#utility.yul\":1276:1355   */\n  tag_48\n  tag_49\n  jump\t// in\ntag_48:\n    /* \"#utility.yul\":1238:1357   */\ntag_47:\n    /* \"#utility.yul\":1417:1418   */\n  0x00\n    /* \"#utility.yul\":1406:1415   */\n  dup5\n    /* \"#utility.yul\":1402:1419   */\n  add\n    /* \"#utility.yul\":1396:1420   */\n  mload\n    /* \"#utility.yul\":1447:1465   */\n  0xffffffffffffffff\n    /* \"#utility.yul\":1439:1445   */\n  dup2\n    /* \"#utility.yul\":1436:1466   */\n  gt\n    /* \"#utility.yul\":1433:1550   */\n  iszero\n  tag_50\n  jumpi\n    /* \"#utility.yul\":1469:1548   */\n  tag_51\n  tag_52\n  jump\t// in\ntag_51:\n    /* \"#utility.yul\":1433:1550   */\ntag_50:\n    /* \"#utility.yul\":1574:1648   */\n  tag_53\n    /* \"#utility.yul\":1640:1647   */\n  dup7\n    /* \"#utility.yul\":1631:1637   */\n  dup3\n    /* \"#utility.yul\":1620:1629   */\n  dup8\n    /* \"#utility.yul\":1616:1638   */\n  add\n    /* \"#utility.yul\":1574:1648   */\n  tag_36\n  jump\t// in\ntag_53:\n    /* \"#utility.yul\":1564:1648   */\n  swap4\n  pop\n    /* \"#utility.yul\":1367:1658   */\n  pop\n    /* \"#utility.yul\":1697:1699   */\n  0x20\n    /* \"#utility.yul\":1723:1787   */\n  tag_54\n    /* \"#utility.yul\":1779:1786   */\n  dup7\n    /* \"#utility.yul\":1770:1776   */\n  dup3\n    /* \"#utility.yul\":1759:1768   */\n  dup8\n    /* \"#utility.yul\":1755:1777   */\n  add\n    /* \"#utility.yul\":1723:1787   */\n  tag_42\n  jump\t// in\ntag_54:\n    /* \"#utility.yul\":1713:1787   */\n  swap3\n  pop\n    /* \"#utility.yul\":1668:1797   */\n  pop\n    /* \"#utility.yul\":1836:1838   */\n  0x40\n    /* \"#utility.yul\":1862:1926   */\n  tag_55\n    /* \"#utility.yul\":1918:1925   */\n  dup7\n    /* \"#utility.yul\":1909:1915   */\n  dup3\n    /* \"#utility.yul\":1898:1907   */\n  dup8\n    /* \"#utility.yul\":1894:1916   */\n  add\n    /* \"#utility.yul\":1862:1926   */\n  tag_32\n  jump\t// in\ntag_55:\n    /* \"#utility.yul\":1852:1926   */\n  swap2\n  pop\n    /* \"#utility.yul\":1807:1936   */\n  pop\n    /* \"#utility.yul\":1107:1943   */\n  swap3\n  pop\n  swap3\n  pop\n  swap3\n  jump\t// out\n    /* \"#utility.yul\":1949:2078   */\ntag_26:\n    /* \"#utility.yul\":1983:1989   */\n  0x00\n    /* \"#utility.yul\":2010:2030   */\n  tag_57\n  tag_58\n  jump\t// in\ntag_57:\n    /* \"#utility.yul\":2000:2030   */\n  swap1\n  pop\n    /* \"#utility.yul\":2039:2072   */\n  tag_59\n    /* \"#utility.yul\":2067:2071   */\n  dup3\n    /* \"#utility.yul\":2059:2065   */\n  dup3\n    /* \"#utility.yul\":2039:2072   */\n  tag_60\n  jump\t// in\ntag_59:\n    /* \"#utility.yul\":1949:2078   */\n  swap2\n  swap1\n  pop\n  jump\t// out\n    /* \"#utility.yul\":2084:2159   */\ntag_58:\n    /* \"#utility.yul\":2117:2123   */\n  0x00\n    /* \"#utility.yul\":2150:2152   */\n  0x40\n    /* \"#utility.yul\":2144:2153   */\n  mload\n    /* \"#utility.yul\":2134:2153   */\n  swap1\n  pop\n    /* \"#utility.yul\":2084:2159   */\n  swap1\n  jump\t// out\n    /* \"#utility.yul\":2165:2473   */\ntag_25:\n    /* \"#utility.yul\":2227:2231   */\n  0x00\n    /* \"#utility.yul\":2317:2335   */\n  0xffffffffffffffff\n    /* \"#utility.yul\":2309:2315   */\n  dup3\n    /* \"#utility.yul\":2306:2336   */\n  gt\n    /* \"#utility.yul\":2303:2359   */\n  iszero\n  tag_63\n  jumpi\n    /* \"#utility.yul\":2339:2357   */\n  tag_64\n  tag_65\n  jump\t// in\ntag_64:\n    /* \"#utility.yul\":2303:2359   */\ntag_63:\n    /* \"#utility.yul\":2377:2406   */\n  tag_66\n    /* \"#utility.yul\":2399:2405   */\n  dup3\n    /* \"#utility.yul\":2377:2406   */\n  tag_67\n  jump\t// in\ntag_66:\n    /* \"#utility.yul\":2369:2406   */\n  swap1\n  pop\n    /* \"#utility.yul\":2461:2465   */\n  0x20\n    /* \"#utility.yul\":2455:2459   */\n  dup2\n    /* \"#utility.yul\":2451:2466   */\n  add\n    /* \"#utility.yul\":2443:2466   */\n  swap1\n  pop\n    /* \"#utility.yul\":2165:2473   */\n  swap2\n  swap1\n  pop\n  jump\t// out\n    /* \"#utility.yul\":2479:2575   */\ntag_68:\n    /* \"#utility.yul\":2516:2523   */\n  0x00\n    /* \"#utility.yul\":2545:2569   */\n  tag_70\n    /* \"#utility.yul\":2563:2568   */\n  dup3\n    /* \"#utility.yul\":2545:2569   */\n  tag_71\n  jump\t// in\ntag_70:\n    /* \"#utility.yul\":2534:2569   */\n  swap1\n  pop\n    /* \"#utility.yul\":2479:2575   */\n  swap2\n  swap1\n  pop\n  jump\t// out\n    /* \"#utility.yul\":2581:2707   */\ntag_71:\n    /* \"#utility.yul\":2618:2625   */\n  0x00\n    /* \"#utility.yul\":2658:2700   */\n  0xffffffffffffffffffffffffffffffffffffffff\n    /* \"#utility.yul\":2651:2656   */\n  dup3\n    /* \"#utility.yul\":2647:2701   */\n  and\n    /* \"#utility.yul\":2636:2701   */\n  swap1\n  pop\n    /* \"#utility.yul\":2581:2707   */\n  swap2\n  swap1\n  pop\n  jump\t// out\n    /* \"#utility.yul\":2713:2790   */\ntag_73:\n    /* \"#utility.yul\":2750:2757   */\n  0x00\n    /* \"#utility.yul\":2779:2784   */\n  dup2\n    /* \"#utility.yul\":2768:2784   */\n  swap1\n  pop\n    /* \"#utility.yul\":2713:2790   */\n  swap2\n  swap1\n  pop\n  jump\t// out\n    /* \"#utility.yul\":2796:3103   */\ntag_31:\n    /* \"#utility.yul\":2864:2865   */\n  0x00\n    /* \"#utility.yul\":2874:2987   */\ntag_76:\n    /* \"#utility.yul\":2888:2894   */\n  dup4\n    /* \"#utility.yul\":2885:2886   */\n  dup2\n    /* \"#utility.yul\":2882:2895   */\n  lt\n    /* \"#utility.yul\":2874:2987   */\n  iszero\n  tag_78\n  jumpi\n    /* \"#utility.yul\":2973:2974   */\n  dup1\n    /* \"#utility.yul\":2968:2971   */\n  dup3\n    /* \"#utility.yul\":2964:2975   */\n  add\n    /* \"#utility.yul\":2958:2976   */\n  mload\n    /* \"#utility.yul\":2954:2955   */\n  dup2\n    /* \"#utility.yul\":2949:2952   */\n  dup5\n    /* \"#utility.yul\":2945:2956   */\n  add\n    /* \"#utility.yul\":2938:2977   */\n  mstore\n    /* \"#utility.yul\":2910:2912   */\n  0x20\n    /* \"#utility.yul\":2907:2908   */\n  dup2\n    /* \"#utility.yul\":2903:2913   */\n  add\n    /* \"#utility.yul\":2898:2913   */\n  swap1\n  pop\n    /* \"#utility.yul\":2874:2987   */\n  jump(tag_76)\ntag_78:\n    /* \"#utility.yul\":3005:3011   */\n  dup4\n    /* \"#utility.yul\":3002:3003   */\n  dup2\n    /* \"#utility.yul\":2999:3012   */\n  gt\n    /* \"#utility.yul\":2996:3097   */\n  iszero\n  tag_79\n  jumpi\n    /* \"#utility.yul\":3085:3086   */\n  0x00\n    /* \"#utility.yul\":3076:3082   */\n  dup5\n    /* \"#utility.yul\":3071:3074   */\n  dup5\n    /* \"#utility.yul\":3067:3083   */\n  add\n    /* \"#utility.yul\":3060:3087   */\n  mstore\n    /* \"#utility.yul\":2996:3097   */\ntag_79:\n    /* \"#utility.yul\":2845:3103   */\n  pop\n    /* \"#utility.yul\":2796:3103   */\n  pop\n  pop\n  pop\n  jump\t// out\n    /* \"#utility.yul\":3109:3429   */\ntag_10:\n    /* \"#utility.yul\":3153:3159   */\n  0x00\n    /* \"#utility.yul\":3190:3191   */\n  0x02\n    /* \"#utility.yul\":3184:3188   */\n  dup3\n    /* \"#utility.yul\":3180:3192   */\n  div\n    /* \"#utility.yul\":3170:3192   */\n  swap1\n  pop\n    /* \"#utility.yul\":3237:3238   */\n  0x01\n    /* \"#utility.yul\":3231:3235   */\n  dup3\n    /* \"#utility.yul\":3227:3239   */\n  and\n    /* \"#utility.yul\":3258:3276   */\n  dup1\n    /* \"#utility.yul\":3248:3329   */\n  tag_81\n  jumpi\n    /* \"#utility.yul\":3314:3318   */\n  0x7f\n    /* \"#utility.yul\":3306:3312   */\n  dup3\n    /* \"#utility.yul\":3302:3319   */\n  and\n    /* \"#utility.yul\":3292:3319   */\n  swap2\n  pop\n    /* \"#utility.yul\":3248:3329   */\ntag_81:\n    /* \"#utility.yul\":3376:3378   */\n  0x20\n    /* \"#utility.yul\":3368:3374   */\n  dup3\n    /* \"#utility.yul\":3365:3379   */\n  lt\n    /* \"#utility.yul\":3345:3363   */\n  dup2\n    /* \"#utility.yul\":3342:3380   */\n  eq\n    /* \"#utility.yul\":3339:3423   */\n  iszero\n  tag_82\n  jumpi\n    /* \"#utility.yul\":3395:3413   */\n  tag_83\n  tag_84\n  jump\t// in\ntag_83:\n    /* \"#utility.yul\":3339:3423   */\ntag_82:\n    /* \"#utility.yul\":3160:3429   */\n  pop\n    /* \"#utility.yul\":3109:3429   */\n  swap2\n  swap1\n  pop\n  jump\t// out\n    /* \"#utility.yul\":3435:3716   */\ntag_60:\n    /* \"#utility.yul\":3518:3545   */\n  tag_86\n    /* \"#utility.yul\":3540:3544   */\n  dup3\n    /* \"#utility.yul\":3518:3545   */\n  tag_67\n  jump\t// in\ntag_86:\n    /* \"#utility.yul\":3510:3516   */\n  dup2\n    /* \"#utility.yul\":3506:3546   */\n  add\n    /* \"#utility.yul\":3648:3654   */\n  dup2\n    /* \"#utility.yul\":3636:3646   */\n  dup2\n    /* \"#utility.yul\":3633:3655   */\n  lt\n    /* \"#utility.yul\":3612:3630   */\n  0xffffffffffffffff\n    /* \"#utility.yul\":3600:3610   */\n  dup3\n    /* \"#utility.yul\":3597:3631   */\n  gt\n    /* \"#utility.yul\":3594:3656   */\n  or\n    /* \"#utility.yul\":3591:3679   */\n  iszero\n  tag_87\n  jumpi\n    /* \"#utility.yul\":3659:3677   */\n  tag_88\n  tag_65\n  jump\t// in\ntag_88:\n    /* \"#utility.yul\":3591:3679   */\ntag_87:\n    /* \"#utility.yul\":3699:3709   */\n  dup1\n    /* \"#utility.yul\":3695:3697   */\n  0x40\n    /* \"#utility.yul\":3688:3710   */\n  mstore\n    /* \"#utility.yul\":3478:3716   */\n  pop\n    /* \"#utility.yul\":3435:3716   */\n  pop\n  pop\n  jump\t// out\n    /* \"#utility.yul\":3722:3902   */\ntag_84:\n    /* \"#utility.yul\":3770:3847   */\n  0x4e487b7100000000000000000000000000000000000000000000000000000000\n    /* \"#utility.yul\":3767:3768   */\n  0x00\n    /* \"#utility.yul\":3760:3848   */\n  mstore\n    /* \"#utility.yul\":3867:3871   */\n  0x22\n    /* \"#utility.yul\":3864:3865   */\n  0x04\n    /* \"#utility.yul\":3857:3872   */\n  mstore\n    /* \"#utility.yul\":3891:3895   */\n  0x24\n    /* \"#utility.yul\":3888:3889   */\n  0x00\n    /* \"#utility.yul\":3881:3896   */\n  revert\n    /* \"#utility.yul\":3908:4088   */\ntag_65:\n    /* \"#utility.yul\":3956:4033   */\n  0x4e487b7100000000000000000000000000000000000000000000000000000000\n    /* \"#utility.yul\":3953:3954   */\n  0x00\n    /* \"#utility.yul\":3946:4034   */\n  mstore\n    /* \"#utility.yul\":4053:4057   */\n  0x41\n    /* \"#utility.yul\":4050:4051   */\n  0x04\n    /* \"#utility.yul\":4043:4058   */\n  mstore\n    /* \"#utility.yul\":4077:4081   */\n  0x24\n    /* \"#utility.yul\":4074:4075   */\n  0x00\n    /* \"#utility.yul\":4067:4082   */\n  revert\n    /* \"#utility.yul\":4094:4211   */\ntag_40:\n    /* \"#utility.yul\":4203:4204   */\n  0x00\n    /* \"#utility.yul\":4200:4201   */\n  dup1\n    /* \"#utility.yul\":4193:4205   */\n  revert\n    /* \"#utility.yul\":4217:4334   */\ntag_29:\n    /* \"#utility.yul\":4326:4327   */\n  0x00\n    /* \"#utility.yul\":4323:4324   */\n  dup1\n    /* \"#utility.yul\":4316:4328   */\n  revert\n    /* \"#utility.yul\":4340:4457   */\ntag_52:\n    /* \"#utility.yul\":4449:4450   */\n  0x00\n    /* \"#utility.yul\":4446:4447   */\n  dup1\n    /* \"#utility.yul\":4439:4451   */\n  revert\n    /* \"#utility.yul\":4463:4580   */\ntag_49:\n    /* \"#utility.yul\":4572:4573   */\n  0x00\n    /* \"#utility.yul\":4569:4570   */\n  dup1\n    /* \"#utility.yul\":4562:4574   */\n  revert\n    /* \"#utility.yul\":4586:4688   */\ntag_67:\n    /* \"#utility.yul\":4627:4633   */\n  0x00\n    /* \"#utility.yul\":4678:4680   */\n  0x1f\n    /* \"#utility.yul\":4674:4681   */\n  not\n    /* \"#utility.yul\":4669:4671   */\n  0x1f\n    /* \"#utility.yul\":4662:4667   */\n  dup4\n    /* \"#utility.yul\":4658:4672   */\n  add\n    /* \"#utility.yul\":4654:4682   */\n  and\n    /* \"#utility.yul\":4644:4682   */\n  swap1\n  pop\n    /* \"#utility.yul\":4586:4688   */\n  swap2\n  swap1\n  pop\n  jump\t// out\n    /* \"#utility.yul\":4694:4816   */\ntag_35:\n    /* \"#utility.yul\":4767:4791   */\n  tag_97\n    /* \"#utility.yul\":4785:4790   */\n  dup2\n    /* \"#utility.yul\":4767:4791   */\n  tag_68\n  jump\t// in\ntag_97:\n    /* \"#utility.yul\":4760:4765   */\n  dup2\n    /* \"#utility.yul\":4757:4792   */\n  eq\n    /* \"#utility.yul\":4747:4810   */\n  tag_98\n  jumpi\n    /* \"#utility.yul\":4806:4807   */\n  0x00\n    /* \"#utility.yul\":4803:4804   */\n  dup1\n    /* \"#utility.yul\":4796:4808   */\n  revert\n    /* \"#utility.yul\":4747:4810   */\ntag_98:\n    /* \"#utility.yul\":4694:4816   */\n  pop\n  jump\t// out\n    /* \"#utility.yul\":4822:4944   */\ntag_45:\n    /* \"#utility.yul\":4895:4919   */\n  tag_100\n    /* \"#utility.yul\":4913:4918   */\n  dup2\n    /* \"#utility.yul\":4895:4919   */\n  tag_73\n  jump\t// in\ntag_100:\n    /* \"#utility.yul\":4888:4893   */\n  dup2\n    /* \"#utility.yul\":4885:4920   */\n  eq\n    /* \"#utility.yul\":4875:4938   */\n  tag_101\n  jumpi\n    /* \"#utility.yul\":4934:4935   */\n  0x00\n    /* \"#utility.yul\":4931:4932   */\n  dup1\n    /* \"#utility.yul\":4924:4936   */\n  revert\n    /* \"#utility.yul\":4875:4938   */\ntag_101:\n    /* \"#utility.yul\":4822:4944   */\n  pop\n  jump\t// out\n    /* \"CampaignFactory\":665:2841  contract Campaign {... */\ntag_8:\n  dataSize(sub_0)\n  dup1\n  dataOffset(sub_0)\n  0x00\n  codecopy\n  0x00\n  return\nstop\n\nsub_0: assembly {\n        /* \"CampaignFactory\":665:2841  contract Campaign {... */\n      mstore(0x40, 0x80)\n      jumpi(tag_1, lt(calldatasize, 0x04))\n      shr(0xe0, calldataload(0x00))\n      dup1\n      0x8a9cfd55\n      gt\n      tag_14\n      jumpi\n      dup1\n      0x8a9cfd55\n      eq\n      tag_8\n      jumpi\n      dup1\n      0x937e09b1\n      eq\n      tag_9\n      jumpi\n      dup1\n      0xb16a867c\n      eq\n      tag_10\n      jumpi\n      dup1\n      0xd7bb99ba\n      eq\n      tag_11\n      jumpi\n      dup1\n      0xd7d1bbdb\n      eq\n      tag_12\n      jumpi\n      dup1\n      0xfbfa4b7f\n      eq\n      tag_13\n      jumpi\n      jump(tag_1)\n    tag_14:\n      dup1\n      0x03441006\n      eq\n      tag_2\n      jumpi\n      dup1\n      0x0a144391\n      eq\n      tag_3\n      jumpi\n      dup1\n      0x481c6a75\n      eq\n      tag_4\n      jumpi\n      dup1\n      0x7284e416\n      eq\n      tag_5\n      jumpi\n      dup1\n      0x81d12c58\n      eq\n      tag_6\n      jumpi\n      dup1\n      0x82fde093\n      eq\n      tag_7\n      jumpi\n    tag_1:\n      0x00\n      dup1\n      revert\n        /* \"CampaignFactory\":2540:2839  function finalizeRequest(uint index) public payable {... */\n    tag_2:\n      tag_15\n      0x04\n      dup1\n      calldatasize\n      sub\n      dup2\n      add\n      swap1\n      tag_16\n      swap2\n      swap1\n      tag_17\n      jump\t// in\n    tag_16:\n      tag_18\n      jump\t// in\n    tag_15:\n      stop\n        /* \"CampaignFactory\":1046:1087  mapping(address => bool) public approvers */\n    tag_3:\n      callvalue\n      dup1\n      iszero\n      tag_19\n      jumpi\n      0x00\n      dup1\n      revert\n    tag_19:\n      pop\n      tag_20\n      0x04\n      dup1\n      calldatasize\n      sub\n      dup2\n      add\n      swap1\n      tag_21\n      swap2\n      swap1\n      tag_22\n      jump\t// in\n    tag_21:\n      tag_23\n      jump\t// in\n    tag_20:\n      mload(0x40)\n      tag_24\n      swap2\n      swap1\n      tag_25\n      jump\t// in\n    tag_24:\n      mload(0x40)\n      dup1\n      swap2\n      sub\n      swap1\n      return\n        /* \"CampaignFactory\":919:941  address public manager */\n    tag_4:\n      callvalue\n      dup1\n      iszero\n      tag_26\n      jumpi\n      0x00\n      dup1\n      revert\n    tag_26:\n      pop\n      tag_27\n      tag_28\n      jump\t// in\n    tag_27:\n      mload(0x40)\n      tag_29\n      swap2\n      swap1\n      tag_30\n      jump\t// in\n    tag_29:\n      mload(0x40)\n      dup1\n      swap2\n      sub\n      swap1\n      return\n        /* \"CampaignFactory\":888:913  string public description */\n    tag_5:\n      callvalue\n      dup1\n      iszero\n      tag_31\n      jumpi\n      0x00\n      dup1\n      revert\n    tag_31:\n      pop\n      tag_32\n      tag_33\n      jump\t// in\n    tag_32:\n      mload(0x40)\n      tag_34\n      swap2\n      swap1\n      tag_35\n      jump\t// in\n    tag_34:\n      mload(0x40)\n      dup1\n      swap2\n      sub\n      swap1\n      return\n        /* \"CampaignFactory\":984:1009  Request[] public requests */\n    tag_6:\n      callvalue\n      dup1\n      iszero\n      tag_36\n      jumpi\n      0x00\n      dup1\n      revert\n    tag_36:\n      pop\n      tag_37\n      0x04\n      dup1\n      calldatasize\n      sub\n      dup2\n      add\n      swap1\n      tag_38\n      swap2\n      swap1\n      tag_17\n      jump\t// in\n    tag_38:\n      tag_39\n      jump\t// in\n    tag_37:\n      mload(0x40)\n      tag_40\n      swap6\n      swap5\n      swap4\n      swap3\n      swap2\n      swap1\n      tag_41\n      jump\t// in\n    tag_40:\n      mload(0x40)\n      dup1\n      swap2\n      sub\n      swap1\n      return\n        /* \"CampaignFactory\":1093:1119  uint public approversCount */\n    tag_7:\n      callvalue\n      dup1\n      iszero\n      tag_42\n      jumpi\n      0x00\n      dup1\n      revert\n    tag_42:\n      pop\n      tag_43\n      tag_44\n      jump\t// in\n    tag_43:\n      mload(0x40)\n      tag_45\n      swap2\n      swap1\n      tag_46\n      jump\t// in\n    tag_45:\n      mload(0x40)\n      dup1\n      swap2\n      sub\n      swap1\n      return\n        /* \"CampaignFactory\":1873:2257  function createRequest(string memory desc, uint value, address recipient) ... */\n    tag_8:\n      callvalue\n      dup1\n      iszero\n      tag_47\n      jumpi\n      0x00\n      dup1\n      revert\n    tag_47:\n      pop\n      tag_48\n      0x04\n      dup1\n      calldatasize\n      sub\n      dup2\n      add\n      swap1\n      tag_49\n      swap2\n      swap1\n      tag_50\n      jump\t// in\n    tag_49:\n      tag_51\n      jump\t// in\n    tag_48:\n      stop\n        /* \"CampaignFactory\":947:978  uint public minimumContribution */\n    tag_9:\n      callvalue\n      dup1\n      iszero\n      tag_52\n      jumpi\n      0x00\n      dup1\n      revert\n    tag_52:\n      pop\n      tag_53\n      tag_54\n      jump\t// in\n    tag_53:\n      mload(0x40)\n      tag_55\n      swap2\n      swap1\n      tag_46\n      jump\t// in\n    tag_55:\n      mload(0x40)\n      dup1\n      swap2\n      sub\n      swap1\n      return\n        /* \"CampaignFactory\":1390:1688  function summary() public view returns (string memory, address, uint, uint, uint, uint) {... */\n    tag_10:\n      callvalue\n      dup1\n      iszero\n      tag_56\n      jumpi\n      0x00\n      dup1\n      revert\n    tag_56:\n      pop\n      tag_57\n      tag_58\n      jump\t// in\n    tag_57:\n      mload(0x40)\n      tag_59\n      swap7\n      swap6\n      swap5\n      swap4\n      swap3\n      swap2\n      swap1\n      tag_60\n      jump\t// in\n    tag_59:\n      mload(0x40)\n      dup1\n      swap2\n      sub\n      swap1\n      return\n        /* \"CampaignFactory\":1694:1867  function contribute() public payable {... */\n    tag_11:\n      tag_61\n      tag_62\n      jump\t// in\n    tag_61:\n      stop\n        /* \"CampaignFactory\":2263:2534  function approveRequest(uint index) public {... */\n    tag_12:\n      callvalue\n      dup1\n      iszero\n      tag_63\n      jumpi\n      0x00\n      dup1\n      revert\n    tag_63:\n      pop\n      tag_64\n      0x04\n      dup1\n      calldatasize\n      sub\n      dup2\n      add\n      swap1\n      tag_65\n      swap2\n      swap1\n      tag_17\n      jump\t// in\n    tag_65:\n      tag_66\n      jump\t// in\n    tag_64:\n      stop\n        /* \"CampaignFactory\":1015:1040  uint public requestsCount */\n    tag_13:\n      callvalue\n      dup1\n      iszero\n      tag_67\n      jumpi\n      0x00\n      dup1\n      revert\n    tag_67:\n      pop\n      tag_68\n      tag_69\n      jump\t// in\n    tag_68:\n      mload(0x40)\n      tag_70\n      swap2\n      swap1\n      tag_46\n      jump\t// in\n    tag_70:\n      mload(0x40)\n      dup1\n      swap2\n      sub\n      swap1\n      return\n        /* \"CampaignFactory\":2540:2839  function finalizeRequest(uint index) public payable {... */\n    tag_18:\n        /* \"CampaignFactory\":2602:2625  Request storage request */\n      0x00\n        /* \"CampaignFactory\":2628:2636  requests */\n      0x03\n        /* \"CampaignFactory\":2637:2642  index */\n      dup3\n        /* \"CampaignFactory\":2628:2643  requests[index] */\n      dup2\n      sload\n      dup2\n      lt\n      tag_72\n      jumpi\n      tag_73\n      tag_74\n      jump\t// in\n    tag_73:\n    tag_72:\n      swap1\n      0x00\n      mstore\n      keccak256(0x00, 0x20)\n      swap1\n      0x05\n      mul\n      add\n        /* \"CampaignFactory\":2602:2643  Request storage request = requests[index] */\n      swap1\n      pop\n        /* \"CampaignFactory\":2700:2701  2 */\n      0x02\n        /* \"CampaignFactory\":2685:2699  approversCount */\n      sload(0x06)\n        /* \"CampaignFactory\":2685:2701  approversCount/2 */\n      tag_76\n      swap2\n      swap1\n      tag_77\n      jump\t// in\n    tag_76:\n        /* \"CampaignFactory\":2661:2668  request */\n      dup2\n        /* \"CampaignFactory\":2661:2682  request.approvalCount */\n      0x04\n      add\n      sload\n        /* \"CampaignFactory\":2661:2701  request.approvalCount > approversCount/2 */\n      gt\n        /* \"CampaignFactory\":2653:2702  require(request.approvalCount > approversCount/2) */\n      tag_78\n      jumpi\n      0x00\n      dup1\n      revert\n    tag_78:\n        /* \"CampaignFactory\":2721:2728  request */\n      dup1\n        /* \"CampaignFactory\":2721:2737  request.complete */\n      0x02\n      add\n      0x14\n      swap1\n      sload\n      swap1\n      0x0100\n      exp\n      swap1\n      div\n      0xff\n      and\n        /* \"CampaignFactory\":2720:2737  !request.complete */\n      iszero\n        /* \"CampaignFactory\":2712:2738  require(!request.complete) */\n      tag_79\n      jumpi\n      0x00\n      dup1\n      revert\n    tag_79:\n        /* \"CampaignFactory\":2757:2764  request */\n      dup1\n        /* \"CampaignFactory\":2757:2774  request.recipient */\n      0x02\n      add\n      0x00\n      swap1\n      sload\n      swap1\n      0x0100\n      exp\n      swap1\n      div\n      0xffffffffffffffffffffffffffffffffffffffff\n      and\n        /* \"CampaignFactory\":2749:2784  payable(request.recipient).transfer */\n      0xffffffffffffffffffffffffffffffffffffffff\n      and\n        /* \"CampaignFactory\":2749:2799  payable(request.recipient).transfer(request.value) */\n      0x08fc\n        /* \"CampaignFactory\":2785:2792  request */\n      dup3\n        /* \"CampaignFactory\":2785:2798  request.value */\n      0x01\n      add\n      sload\n        /* \"CampaignFactory\":2749:2799  payable(request.recipient).transfer(request.value) */\n      swap1\n      dup2\n      iszero\n      mul\n      swap1\n      mload(0x40)\n      0x00\n      mload(0x40)\n      dup1\n      dup4\n      sub\n      dup2\n      dup6\n      dup9\n      dup9\n      call\n      swap4\n      pop\n      pop\n      pop\n      pop\n      iszero\n      dup1\n      iszero\n      tag_81\n      jumpi\n      returndatasize\n      0x00\n      dup1\n      returndatacopy\n      revert(0x00, returndatasize)\n    tag_81:\n      pop\n        /* \"CampaignFactory\":2828:2832  true */\n      0x01\n        /* \"CampaignFactory\":2809:2816  request */\n      dup2\n        /* \"CampaignFactory\":2809:2825  request.complete */\n      0x02\n      add\n      0x14\n        /* \"CampaignFactory\":2809:2832  request.complete = true */\n      0x0100\n      exp\n      dup2\n      sload\n      dup2\n      0xff\n      mul\n      not\n      and\n      swap1\n      dup4\n      iszero\n      iszero\n      mul\n      or\n      swap1\n      sstore\n      pop\n        /* \"CampaignFactory\":2592:2839  {... */\n      pop\n        /* \"CampaignFactory\":2540:2839  function finalizeRequest(uint index) public payable {... */\n      pop\n      jump\t// out\n        /* \"CampaignFactory\":1046:1087  mapping(address => bool) public approvers */\n    tag_23:\n      mstore(0x20, 0x05)\n      dup1\n      0x00\n      mstore\n      keccak256(0x00, 0x40)\n      0x00\n      swap2\n      pop\n      sload\n      swap1\n      0x0100\n      exp\n      swap1\n      div\n      0xff\n      and\n      dup2\n      jump\t// out\n        /* \"CampaignFactory\":919:941  address public manager */\n    tag_28:\n      0x01\n      0x00\n      swap1\n      sload\n      swap1\n      0x0100\n      exp\n      swap1\n      div\n      0xffffffffffffffffffffffffffffffffffffffff\n      and\n      dup2\n      jump\t// out\n        /* \"CampaignFactory\":888:913  string public description */\n    tag_33:\n      0x00\n      dup1\n      sload\n      tag_82\n      swap1\n      tag_83\n      jump\t// in\n    tag_82:\n      dup1\n      0x1f\n      add\n      0x20\n      dup1\n      swap2\n      div\n      mul\n      0x20\n      add\n      mload(0x40)\n      swap1\n      dup2\n      add\n      0x40\n      mstore\n      dup1\n      swap3\n      swap2\n      swap1\n      dup2\n      dup2\n      mstore\n      0x20\n      add\n      dup3\n      dup1\n      sload\n      tag_84\n      swap1\n      tag_83\n      jump\t// in\n    tag_84:\n      dup1\n      iszero\n      tag_85\n      jumpi\n      dup1\n      0x1f\n      lt\n      tag_86\n      jumpi\n      0x0100\n      dup1\n      dup4\n      sload\n      div\n      mul\n      dup4\n      mstore\n      swap2\n      0x20\n      add\n      swap2\n      jump(tag_85)\n    tag_86:\n      dup3\n      add\n      swap2\n      swap1\n      0x00\n      mstore\n      keccak256(0x00, 0x20)\n      swap1\n    tag_87:\n      dup2\n      sload\n      dup2\n      mstore\n      swap1\n      0x01\n      add\n      swap1\n      0x20\n      add\n      dup1\n      dup4\n      gt\n      tag_87\n      jumpi\n      dup3\n      swap1\n      sub\n      0x1f\n      and\n      dup3\n      add\n      swap2\n    tag_85:\n      pop\n      pop\n      pop\n      pop\n      pop\n      dup2\n      jump\t// out\n        /* \"CampaignFactory\":984:1009  Request[] public requests */\n    tag_39:\n      0x03\n      dup2\n      dup2\n      sload\n      dup2\n      lt\n      tag_88\n      jumpi\n      0x00\n      dup1\n      revert\n    tag_88:\n      swap1\n      0x00\n      mstore\n      keccak256(0x00, 0x20)\n      swap1\n      0x05\n      mul\n      add\n      0x00\n      swap2\n      pop\n      swap1\n      pop\n      dup1\n      0x00\n      add\n      dup1\n      sload\n      tag_90\n      swap1\n      tag_83\n      jump\t// in\n    tag_90:\n      dup1\n      0x1f\n      add\n      0x20\n      dup1\n      swap2\n      div\n      mul\n      0x20\n      add\n      mload(0x40)\n      swap1\n      dup2\n      add\n      0x40\n      mstore\n      dup1\n      swap3\n      swap2\n      swap1\n      dup2\n      dup2\n      mstore\n      0x20\n      add\n      dup3\n      dup1\n      sload\n      tag_91\n      swap1\n      tag_83\n      jump\t// in\n    tag_91:\n      dup1\n      iszero\n      tag_92\n      jumpi\n      dup1\n      0x1f\n      lt\n      tag_93\n      jumpi\n      0x0100\n      dup1\n      dup4\n      sload\n      div\n      mul\n      dup4\n      mstore\n      swap2\n      0x20\n      add\n      swap2\n      jump(tag_92)\n    tag_93:\n      dup3\n      add\n      swap2\n      swap1\n      0x00\n      mstore\n      keccak256(0x00, 0x20)\n      swap1\n    tag_94:\n      dup2\n      sload\n      dup2\n      mstore\n      swap1\n      0x01\n      add\n      swap1\n      0x20\n      add\n      dup1\n      dup4\n      gt\n      tag_94\n      jumpi\n      dup3\n      swap1\n      sub\n      0x1f\n      and\n      dup3\n      add\n      swap2\n    tag_92:\n      pop\n      pop\n      pop\n      pop\n      pop\n      swap1\n      dup1\n      0x01\n      add\n      sload\n      swap1\n      dup1\n      0x02\n      add\n      0x00\n      swap1\n      sload\n      swap1\n      0x0100\n      exp\n      swap1\n      div\n      0xffffffffffffffffffffffffffffffffffffffff\n      and\n      swap1\n      dup1\n      0x02\n      add\n      0x14\n      swap1\n      sload\n      swap1\n      0x0100\n      exp\n      swap1\n      div\n      0xff\n      and\n      swap1\n      dup1\n      0x04\n      add\n      sload\n      swap1\n      pop\n      dup6\n      jump\t// out\n        /* \"CampaignFactory\":1093:1119  uint public approversCount */\n    tag_44:\n      sload(0x06)\n      dup2\n      jump\t// out\n        /* \"CampaignFactory\":1873:2257  function createRequest(string memory desc, uint value, address recipient) ... */\n    tag_51:\n        /* \"CampaignFactory\":1358:1365  manager */\n      0x01\n      0x00\n      swap1\n      sload\n      swap1\n      0x0100\n      exp\n      swap1\n      div\n      0xffffffffffffffffffffffffffffffffffffffff\n      and\n        /* \"CampaignFactory\":1344:1365  msg.sender == manager */\n      0xffffffffffffffffffffffffffffffffffffffff\n      and\n        /* \"CampaignFactory\":1344:1354  msg.sender */\n      caller\n        /* \"CampaignFactory\":1344:1365  msg.sender == manager */\n      0xffffffffffffffffffffffffffffffffffffffff\n      and\n      eq\n        /* \"CampaignFactory\":1336:1366  require(msg.sender == manager) */\n      tag_96\n      jumpi\n      0x00\n      dup1\n      revert\n    tag_96:\n        /* \"CampaignFactory\":1991:2017  Request storage newRequest */\n      0x00\n        /* \"CampaignFactory\":2020:2028  requests */\n      0x03\n        /* \"CampaignFactory\":2020:2035  requests.push() */\n      0x01\n      dup2\n      0x01\n      dup2\n      sload\n      add\n      dup1\n      dup3\n      sstore\n      dup1\n      swap2\n      pop\n      pop\n      sub\n      swap1\n      0x00\n      mstore\n      keccak256(0x00, 0x20)\n      swap1\n      0x05\n      mul\n      add\n        /* \"CampaignFactory\":1991:2035  Request storage newRequest = requests.push() */\n      swap1\n      pop\n        /* \"CampaignFactory\":2070:2074  desc */\n      dup4\n        /* \"CampaignFactory\":2045:2055  newRequest */\n      dup2\n        /* \"CampaignFactory\":2045:2067  newRequest.description */\n      0x00\n      add\n        /* \"CampaignFactory\":2045:2074  newRequest.description = desc */\n      swap1\n      dup1\n      mload\n      swap1\n      0x20\n      add\n      swap1\n      tag_99\n      swap3\n      swap2\n      swap1\n      tag_100\n      jump\t// in\n    tag_99:\n      pop\n        /* \"CampaignFactory\":2103:2108  value */\n      dup3\n        /* \"CampaignFactory\":2084:2094  newRequest */\n      dup2\n        /* \"CampaignFactory\":2084:2100  newRequest.value */\n      0x01\n      add\n        /* \"CampaignFactory\":2084:2108  newRequest.value = value */\n      dup2\n      swap1\n      sstore\n      pop\n        /* \"CampaignFactory\":2141:2150  recipient */\n      dup2\n        /* \"CampaignFactory\":2118:2128  newRequest */\n      dup2\n        /* \"CampaignFactory\":2118:2138  newRequest.recipient */\n      0x02\n      add\n      0x00\n        /* \"CampaignFactory\":2118:2150  newRequest.recipient = recipient */\n      0x0100\n      exp\n      dup2\n      sload\n      dup2\n      0xffffffffffffffffffffffffffffffffffffffff\n      mul\n      not\n      and\n      swap1\n      dup4\n      0xffffffffffffffffffffffffffffffffffffffff\n      and\n      mul\n      or\n      swap1\n      sstore\n      pop\n        /* \"CampaignFactory\":2182:2187  false */\n      0x00\n        /* \"CampaignFactory\":2160:2170  newRequest */\n      dup2\n        /* \"CampaignFactory\":2160:2179  newRequest.complete */\n      0x02\n      add\n      0x14\n        /* \"CampaignFactory\":2160:2187  newRequest.complete = false */\n      0x0100\n      exp\n      dup2\n      sload\n      dup2\n      0xff\n      mul\n      not\n      and\n      swap1\n      dup4\n      iszero\n      iszero\n      mul\n      or\n      swap1\n      sstore\n      pop\n        /* \"CampaignFactory\":2224:2225  0 */\n      0x00\n        /* \"CampaignFactory\":2197:2207  newRequest */\n      dup2\n        /* \"CampaignFactory\":2197:2221  newRequest.approvalCount */\n      0x04\n      add\n        /* \"CampaignFactory\":2197:2225  newRequest.approvalCount = 0 */\n      dup2\n      swap1\n      sstore\n      pop\n        /* \"CampaignFactory\":2235:2248  requestsCount */\n      0x04\n      0x00\n        /* \"CampaignFactory\":2235:2250  requestsCount++ */\n      dup2\n      sload\n      dup1\n      swap3\n      swap2\n      swap1\n      tag_101\n      swap1\n      tag_102\n      jump\t// in\n    tag_101:\n      swap2\n      swap1\n      pop\n      sstore\n      pop\n        /* \"CampaignFactory\":1981:2257  {... */\n      pop\n        /* \"CampaignFactory\":1873:2257  function createRequest(string memory desc, uint value, address recipient) ... */\n      pop\n      pop\n      pop\n      jump\t// out\n        /* \"CampaignFactory\":947:978  uint public minimumContribution */\n    tag_54:\n      sload(0x02)\n      dup2\n      jump\t// out\n        /* \"CampaignFactory\":1390:1688  function summary() public view returns (string memory, address, uint, uint, uint, uint) {... */\n    tag_58:\n        /* \"CampaignFactory\":1430:1443  string memory */\n      0x60\n        /* \"CampaignFactory\":1445:1452  address */\n      0x00\n        /* \"CampaignFactory\":1454:1458  uint */\n      dup1\n        /* \"CampaignFactory\":1460:1464  uint */\n      0x00\n        /* \"CampaignFactory\":1466:1470  uint */\n      dup1\n        /* \"CampaignFactory\":1472:1476  uint */\n      0x00\n        /* \"CampaignFactory\":1509:1520  description */\n      dup1\n        /* \"CampaignFactory\":1535:1542  manager */\n      0x01\n      0x00\n      swap1\n      sload\n      swap1\n      0x0100\n      exp\n      swap1\n      div\n      0xffffffffffffffffffffffffffffffffffffffff\n      and\n        /* \"CampaignFactory\":1557:1576  minimumContribution */\n      sload(0x02)\n        /* \"CampaignFactory\":1591:1599  requests */\n      0x03\n        /* \"CampaignFactory\":1591:1606  requests.length */\n      dup1\n      sload\n      swap1\n      pop\n        /* \"CampaignFactory\":1621:1635  approversCount */\n      sload(0x06)\n        /* \"CampaignFactory\":1650:1671  address(this).balance */\n      selfbalance\n        /* \"CampaignFactory\":1488:1681  return (... */\n      dup6\n      dup1\n      sload\n      tag_104\n      swap1\n      tag_83\n      jump\t// in\n    tag_104:\n      dup1\n      0x1f\n      add\n      0x20\n      dup1\n      swap2\n      div\n      mul\n      0x20\n      add\n      mload(0x40)\n      swap1\n      dup2\n      add\n      0x40\n      mstore\n      dup1\n      swap3\n      swap2\n      swap1\n      dup2\n      dup2\n      mstore\n      0x20\n      add\n      dup3\n      dup1\n      sload\n      tag_105\n      swap1\n      tag_83\n      jump\t// in\n    tag_105:\n      dup1\n      iszero\n      tag_106\n      jumpi\n      dup1\n      0x1f\n      lt\n      tag_107\n      jumpi\n      0x0100\n      dup1\n      dup4\n      sload\n      div\n      mul\n      dup4\n      mstore\n      swap2\n      0x20\n      add\n      swap2\n      jump(tag_106)\n    tag_107:\n      dup3\n      add\n      swap2\n      swap1\n      0x00\n      mstore\n      keccak256(0x00, 0x20)\n      swap1\n    tag_108:\n      dup2\n      sload\n      dup2\n      mstore\n      swap1\n      0x01\n      add\n      swap1\n      0x20\n      add\n      dup1\n      dup4\n      gt\n      tag_108\n      jumpi\n      dup3\n      swap1\n      sub\n      0x1f\n      and\n      dup3\n      add\n      swap2\n    tag_106:\n      pop\n      pop\n      pop\n      pop\n      pop\n      swap6\n      pop\n      swap6\n      pop\n      swap6\n      pop\n      swap6\n      pop\n      swap6\n      pop\n      swap6\n      pop\n      swap6\n      pop\n        /* \"CampaignFactory\":1390:1688  function summary() public view returns (string memory, address, uint, uint, uint, uint) {... */\n      swap1\n      swap2\n      swap3\n      swap4\n      swap5\n      swap6\n      jump\t// out\n        /* \"CampaignFactory\":1694:1867  function contribute() public payable {... */\n    tag_62:\n        /* \"CampaignFactory\":1757:1776  minimumContribution */\n      sload(0x02)\n        /* \"CampaignFactory\":1744:1753  msg.value */\n      callvalue\n        /* \"CampaignFactory\":1744:1776  msg.value >= minimumContribution */\n      lt\n        /* \"CampaignFactory\":1741:1861  if(msg.value >= minimumContribution) {... */\n      tag_110\n      jumpi\n        /* \"CampaignFactory\":1816:1820  true */\n      0x01\n        /* \"CampaignFactory\":1792:1801  approvers */\n      0x05\n        /* \"CampaignFactory\":1792:1813  approvers[msg.sender] */\n      0x00\n        /* \"CampaignFactory\":1802:1812  msg.sender */\n      caller\n        /* \"CampaignFactory\":1792:1813  approvers[msg.sender] */\n      0xffffffffffffffffffffffffffffffffffffffff\n      and\n      0xffffffffffffffffffffffffffffffffffffffff\n      and\n      dup2\n      mstore\n      0x20\n      add\n      swap1\n      dup2\n      mstore\n      0x20\n      add\n      0x00\n      keccak256\n      0x00\n        /* \"CampaignFactory\":1792:1820  approvers[msg.sender] = true */\n      0x0100\n      exp\n      dup2\n      sload\n      dup2\n      0xff\n      mul\n      not\n      and\n      swap1\n      dup4\n      iszero\n      iszero\n      mul\n      or\n      swap1\n      sstore\n      pop\n        /* \"CampaignFactory\":1834:1848  approversCount */\n      0x06\n      0x00\n        /* \"CampaignFactory\":1834:1850  approversCount++ */\n      dup2\n      sload\n      dup1\n      swap3\n      swap2\n      swap1\n      tag_111\n      swap1\n      tag_102\n      jump\t// in\n    tag_111:\n      swap2\n      swap1\n      pop\n      sstore\n      pop\n        /* \"CampaignFactory\":1741:1861  if(msg.value >= minimumContribution) {... */\n    tag_110:\n        /* \"CampaignFactory\":1694:1867  function contribute() public payable {... */\n      jump\t// out\n        /* \"CampaignFactory\":2263:2534  function approveRequest(uint index) public {... */\n    tag_66:\n        /* \"CampaignFactory\":2324:2333  approvers */\n      0x05\n        /* \"CampaignFactory\":2324:2345  approvers[msg.sender] */\n      0x00\n        /* \"CampaignFactory\":2334:2344  msg.sender */\n      caller\n        /* \"CampaignFactory\":2324:2345  approvers[msg.sender] */\n      0xffffffffffffffffffffffffffffffffffffffff\n      and\n      0xffffffffffffffffffffffffffffffffffffffff\n      and\n      dup2\n      mstore\n      0x20\n      add\n      swap1\n      dup2\n      mstore\n      0x20\n      add\n      0x00\n      keccak256\n      0x00\n      swap1\n      sload\n      swap1\n      0x0100\n      exp\n      swap1\n      div\n      0xff\n      and\n        /* \"CampaignFactory\":2316:2346  require(approvers[msg.sender]) */\n      tag_113\n      jumpi\n      0x00\n      dup1\n      revert\n    tag_113:\n        /* \"CampaignFactory\":2357:2380  Request storage request */\n      0x00\n        /* \"CampaignFactory\":2383:2391  requests */\n      0x03\n        /* \"CampaignFactory\":2392:2397  index */\n      dup3\n        /* \"CampaignFactory\":2383:2398  requests[index] */\n      dup2\n      sload\n      dup2\n      lt\n      tag_114\n      jumpi\n      tag_115\n      tag_74\n      jump\t// in\n    tag_115:\n    tag_114:\n      swap1\n      0x00\n      mstore\n      keccak256(0x00, 0x20)\n      swap1\n      0x05\n      mul\n      add\n        /* \"CampaignFactory\":2357:2398  Request storage request = requests[index] */\n      swap1\n      pop\n        /* \"CampaignFactory\":2417:2424  request */\n      dup1\n        /* \"CampaignFactory\":2417:2434  request.approvals */\n      0x03\n      add\n        /* \"CampaignFactory\":2417:2446  request.approvals[msg.sender] */\n      0x00\n        /* \"CampaignFactory\":2435:2445  msg.sender */\n      caller\n        /* \"CampaignFactory\":2417:2446  request.approvals[msg.sender] */\n      0xffffffffffffffffffffffffffffffffffffffff\n      and\n      0xffffffffffffffffffffffffffffffffffffffff\n      and\n      dup2\n      mstore\n      0x20\n      add\n      swap1\n      dup2\n      mstore\n      0x20\n      add\n      0x00\n      keccak256\n      0x00\n      swap1\n      sload\n      swap1\n      0x0100\n      exp\n      swap1\n      div\n      0xff\n      and\n        /* \"CampaignFactory\":2416:2446  !request.approvals[msg.sender] */\n      iszero\n        /* \"CampaignFactory\":2408:2447  require(!request.approvals[msg.sender]) */\n      tag_117\n      jumpi\n      0x00\n      dup1\n      revert\n    tag_117:\n        /* \"CampaignFactory\":2490:2494  true */\n      0x01\n        /* \"CampaignFactory\":2458:2465  request */\n      dup2\n        /* \"CampaignFactory\":2458:2475  request.approvals */\n      0x03\n      add\n        /* \"CampaignFactory\":2458:2487  request.approvals[msg.sender] */\n      0x00\n        /* \"CampaignFactory\":2476:2486  msg.sender */\n      caller\n        /* \"CampaignFactory\":2458:2487  request.approvals[msg.sender] */\n      0xffffffffffffffffffffffffffffffffffffffff\n      and\n      0xffffffffffffffffffffffffffffffffffffffff\n      and\n      dup2\n      mstore\n      0x20\n      add\n      swap1\n      dup2\n      mstore\n      0x20\n      add\n      0x00\n      keccak256\n      0x00\n        /* \"CampaignFactory\":2458:2494  request.approvals[msg.sender] = true */\n      0x0100\n      exp\n      dup2\n      sload\n      dup2\n      0xff\n      mul\n      not\n      and\n      swap1\n      dup4\n      iszero\n      iszero\n      mul\n      or\n      swap1\n      sstore\n      pop\n        /* \"CampaignFactory\":2504:2511  request */\n      dup1\n        /* \"CampaignFactory\":2504:2525  request.approvalCount */\n      0x04\n      add\n      0x00\n        /* \"CampaignFactory\":2504:2527  request.approvalCount++ */\n      dup2\n      sload\n      dup1\n      swap3\n      swap2\n      swap1\n      tag_118\n      swap1\n      tag_102\n      jump\t// in\n    tag_118:\n      swap2\n      swap1\n      pop\n      sstore\n      pop\n        /* \"CampaignFactory\":2306:2534  {... */\n      pop\n        /* \"CampaignFactory\":2263:2534  function approveRequest(uint index) public {... */\n      pop\n      jump\t// out\n        /* \"CampaignFactory\":1015:1040  uint public requestsCount */\n    tag_69:\n      sload(0x04)\n      dup2\n      jump\t// out\n    tag_100:\n      dup3\n      dup1\n      sload\n      tag_119\n      swap1\n      tag_83\n      jump\t// in\n    tag_119:\n      swap1\n      0x00\n      mstore\n      keccak256(0x00, 0x20)\n      swap1\n      0x1f\n      add\n      0x20\n      swap1\n      div\n      dup2\n      add\n      swap3\n      dup3\n      tag_121\n      jumpi\n      0x00\n      dup6\n      sstore\n      jump(tag_120)\n    tag_121:\n      dup3\n      0x1f\n      lt\n      tag_122\n      jumpi\n      dup1\n      mload\n      not(0xff)\n      and\n      dup4\n      dup1\n      add\n      or\n      dup6\n      sstore\n      jump(tag_120)\n    tag_122:\n      dup3\n      dup1\n      add\n      0x01\n      add\n      dup6\n      sstore\n      dup3\n      iszero\n      tag_120\n      jumpi\n      swap2\n      dup3\n      add\n    tag_123:\n      dup3\n      dup2\n      gt\n      iszero\n      tag_124\n      jumpi\n      dup3\n      mload\n      dup3\n      sstore\n      swap2\n      0x20\n      add\n      swap2\n      swap1\n      0x01\n      add\n      swap1\n      jump(tag_123)\n    tag_124:\n    tag_120:\n      pop\n      swap1\n      pop\n      tag_125\n      swap2\n      swap1\n      tag_126\n      jump\t// in\n    tag_125:\n      pop\n      swap1\n      jump\t// out\n    tag_126:\n    tag_127:\n      dup1\n      dup3\n      gt\n      iszero\n      tag_128\n      jumpi\n      0x00\n      dup2\n      0x00\n      swap1\n      sstore\n      pop\n      0x01\n      add\n      jump(tag_127)\n    tag_128:\n      pop\n      swap1\n      jump\t// out\n        /* \"#utility.yul\":7:419   */\n    tag_130:\n        /* \"#utility.yul\":85:90   */\n      0x00\n        /* \"#utility.yul\":110:176   */\n      tag_132\n        /* \"#utility.yul\":126:175   */\n      tag_133\n        /* \"#utility.yul\":168:174   */\n      dup5\n        /* \"#utility.yul\":126:175   */\n      tag_134\n      jump\t// in\n    tag_133:\n        /* \"#utility.yul\":110:176   */\n      tag_135\n      jump\t// in\n    tag_132:\n        /* \"#utility.yul\":101:176   */\n      swap1\n      pop\n        /* \"#utility.yul\":199:205   */\n      dup3\n        /* \"#utility.yul\":192:197   */\n      dup2\n        /* \"#utility.yul\":185:206   */\n      mstore\n        /* \"#utility.yul\":237:241   */\n      0x20\n        /* \"#utility.yul\":230:235   */\n      dup2\n        /* \"#utility.yul\":226:242   */\n      add\n        /* \"#utility.yul\":275:278   */\n      dup5\n        /* \"#utility.yul\":266:272   */\n      dup5\n        /* \"#utility.yul\":261:264   */\n      dup5\n        /* \"#utility.yul\":257:273   */\n      add\n        /* \"#utility.yul\":254:279   */\n      gt\n        /* \"#utility.yul\":251:363   */\n      iszero\n      tag_136\n      jumpi\n        /* \"#utility.yul\":282:361   */\n      tag_137\n      tag_138\n      jump\t// in\n    tag_137:\n        /* \"#utility.yul\":251:363   */\n    tag_136:\n        /* \"#utility.yul\":372:413   */\n      tag_139\n        /* \"#utility.yul\":406:412   */\n      dup5\n        /* \"#utility.yul\":401:404   */\n      dup3\n        /* \"#utility.yul\":396:399   */\n      dup6\n        /* \"#utility.yul\":372:413   */\n      tag_140\n      jump\t// in\n    tag_139:\n        /* \"#utility.yul\":91:419   */\n      pop\n        /* \"#utility.yul\":7:419   */\n      swap4\n      swap3\n      pop\n      pop\n      pop\n      jump\t// out\n        /* \"#utility.yul\":425:564   */\n    tag_141:\n        /* \"#utility.yul\":471:476   */\n      0x00\n        /* \"#utility.yul\":509:515   */\n      dup2\n        /* \"#utility.yul\":496:516   */\n      calldataload\n        /* \"#utility.yul\":487:516   */\n      swap1\n      pop\n        /* \"#utility.yul\":525:558   */\n      tag_143\n        /* \"#utility.yul\":552:557   */\n      dup2\n        /* \"#utility.yul\":525:558   */\n      tag_144\n      jump\t// in\n    tag_143:\n        /* \"#utility.yul\":425:564   */\n      swap3\n      swap2\n      pop\n      pop\n      jump\t// out\n        /* \"#utility.yul\":584:924   */\n    tag_145:\n        /* \"#utility.yul\":640:645   */\n      0x00\n        /* \"#utility.yul\":689:692   */\n      dup3\n        /* \"#utility.yul\":682:686   */\n      0x1f\n        /* \"#utility.yul\":674:680   */\n      dup4\n        /* \"#utility.yul\":670:687   */\n      add\n        /* \"#utility.yul\":666:693   */\n      slt\n        /* \"#utility.yul\":656:778   */\n      tag_147\n      jumpi\n        /* \"#utility.yul\":697:776   */\n      tag_148\n      tag_149\n      jump\t// in\n    tag_148:\n        /* \"#utility.yul\":656:778   */\n    tag_147:\n        /* \"#utility.yul\":814:820   */\n      dup2\n        /* \"#utility.yul\":801:821   */\n      calldataload\n        /* \"#utility.yul\":839:918   */\n      tag_150\n        /* \"#utility.yul\":914:917   */\n      dup5\n        /* \"#utility.yul\":906:912   */\n      dup3\n        /* \"#utility.yul\":899:903   */\n      0x20\n        /* \"#utility.yul\":891:897   */\n      dup7\n        /* \"#utility.yul\":887:904   */\n      add\n        /* \"#utility.yul\":839:918   */\n      tag_130\n      jump\t// in\n    tag_150:\n        /* \"#utility.yul\":830:918   */\n      swap2\n      pop\n        /* \"#utility.yul\":646:924   */\n      pop\n        /* \"#utility.yul\":584:924   */\n      swap3\n      swap2\n      pop\n      pop\n      jump\t// out\n        /* \"#utility.yul\":930:1069   */\n    tag_151:\n        /* \"#utility.yul\":976:981   */\n      0x00\n        /* \"#utility.yul\":1014:1020   */\n      dup2\n        /* \"#utility.yul\":1001:1021   */\n      calldataload\n        /* \"#utility.yul\":992:1021   */\n      swap1\n      pop\n        /* \"#utility.yul\":1030:1063   */\n      tag_153\n        /* \"#utility.yul\":1057:1062   */\n      dup2\n        /* \"#utility.yul\":1030:1063   */\n      tag_154\n      jump\t// in\n    tag_153:\n        /* \"#utility.yul\":930:1069   */\n      swap3\n      swap2\n      pop\n      pop\n      jump\t// out\n        /* \"#utility.yul\":1075:1404   */\n    tag_22:\n        /* \"#utility.yul\":1134:1140   */\n      0x00\n        /* \"#utility.yul\":1183:1185   */\n      0x20\n        /* \"#utility.yul\":1171:1180   */\n      dup3\n        /* \"#utility.yul\":1162:1169   */\n      dup5\n        /* \"#utility.yul\":1158:1181   */\n      sub\n        /* \"#utility.yul\":1154:1186   */\n      slt\n        /* \"#utility.yul\":1151:1270   */\n      iszero\n      tag_156\n      jumpi\n        /* \"#utility.yul\":1189:1268   */\n      tag_157\n      tag_158\n      jump\t// in\n    tag_157:\n        /* \"#utility.yul\":1151:1270   */\n    tag_156:\n        /* \"#utility.yul\":1309:1310   */\n      0x00\n        /* \"#utility.yul\":1334:1387   */\n      tag_159\n        /* \"#utility.yul\":1379:1386   */\n      dup5\n        /* \"#utility.yul\":1370:1376   */\n      dup3\n        /* \"#utility.yul\":1359:1368   */\n      dup6\n        /* \"#utility.yul\":1355:1377   */\n      add\n        /* \"#utility.yul\":1334:1387   */\n      tag_141\n      jump\t// in\n    tag_159:\n        /* \"#utility.yul\":1324:1387   */\n      swap2\n      pop\n        /* \"#utility.yul\":1280:1397   */\n      pop\n        /* \"#utility.yul\":1075:1404   */\n      swap3\n      swap2\n      pop\n      pop\n      jump\t// out\n        /* \"#utility.yul\":1410:2209   */\n    tag_50:\n        /* \"#utility.yul\":1497:1503   */\n      0x00\n        /* \"#utility.yul\":1505:1511   */\n      dup1\n        /* \"#utility.yul\":1513:1519   */\n      0x00\n        /* \"#utility.yul\":1562:1564   */\n      0x60\n        /* \"#utility.yul\":1550:1559   */\n      dup5\n        /* \"#utility.yul\":1541:1548   */\n      dup7\n        /* \"#utility.yul\":1537:1560   */\n      sub\n        /* \"#utility.yul\":1533:1565   */\n      slt\n        /* \"#utility.yul\":1530:1649   */\n      iszero\n      tag_161\n      jumpi\n        /* \"#utility.yul\":1568:1647   */\n      tag_162\n      tag_158\n      jump\t// in\n    tag_162:\n        /* \"#utility.yul\":1530:1649   */\n    tag_161:\n        /* \"#utility.yul\":1716:1717   */\n      0x00\n        /* \"#utility.yul\":1705:1714   */\n      dup5\n        /* \"#utility.yul\":1701:1718   */\n      add\n        /* \"#utility.yul\":1688:1719   */\n      calldataload\n        /* \"#utility.yul\":1746:1764   */\n      0xffffffffffffffff\n        /* \"#utility.yul\":1738:1744   */\n      dup2\n        /* \"#utility.yul\":1735:1765   */\n      gt\n        /* \"#utility.yul\":1732:1849   */\n      iszero\n      tag_163\n      jumpi\n        /* \"#utility.yul\":1768:1847   */\n      tag_164\n      tag_165\n      jump\t// in\n    tag_164:\n        /* \"#utility.yul\":1732:1849   */\n    tag_163:\n        /* \"#utility.yul\":1873:1936   */\n      tag_166\n        /* \"#utility.yul\":1928:1935   */\n      dup7\n        /* \"#utility.yul\":1919:1925   */\n      dup3\n        /* \"#utility.yul\":1908:1917   */\n      dup8\n        /* \"#utility.yul\":1904:1926   */\n      add\n        /* \"#utility.yul\":1873:1936   */\n      tag_145\n      jump\t// in\n    tag_166:\n        /* \"#utility.yul\":1863:1936   */\n      swap4\n      pop\n        /* \"#utility.yul\":1659:1946   */\n      pop\n        /* \"#utility.yul\":1985:1987   */\n      0x20\n        /* \"#utility.yul\":2011:2064   */\n      tag_167\n        /* \"#utility.yul\":2056:2063   */\n      dup7\n        /* \"#utility.yul\":2047:2053   */\n      dup3\n        /* \"#utility.yul\":2036:2045   */\n      dup8\n        /* \"#utility.yul\":2032:2054   */\n      add\n        /* \"#utility.yul\":2011:2064   */\n      tag_151\n      jump\t// in\n    tag_167:\n        /* \"#utility.yul\":2001:2064   */\n      swap3\n      pop\n        /* \"#utility.yul\":1956:2074   */\n      pop\n        /* \"#utility.yul\":2113:2115   */\n      0x40\n        /* \"#utility.yul\":2139:2192   */\n      tag_168\n        /* \"#utility.yul\":2184:2191   */\n      dup7\n        /* \"#utility.yul\":2175:2181   */\n      dup3\n        /* \"#utility.yul\":2164:2173   */\n      dup8\n        /* \"#utility.yul\":2160:2182   */\n      add\n        /* \"#utility.yul\":2139:2192   */\n      tag_141\n      jump\t// in\n    tag_168:\n        /* \"#utility.yul\":2129:2192   */\n      swap2\n      pop\n        /* \"#utility.yul\":2084:2202   */\n      pop\n        /* \"#utility.yul\":1410:2209   */\n      swap3\n      pop\n      swap3\n      pop\n      swap3\n      jump\t// out\n        /* \"#utility.yul\":2215:2544   */\n    tag_17:\n        /* \"#utility.yul\":2274:2280   */\n      0x00\n        /* \"#utility.yul\":2323:2325   */\n      0x20\n        /* \"#utility.yul\":2311:2320   */\n      dup3\n        /* \"#utility.yul\":2302:2309   */\n      dup5\n        /* \"#utility.yul\":2298:2321   */\n      sub\n        /* \"#utility.yul\":2294:2326   */\n      slt\n        /* \"#utility.yul\":2291:2410   */\n      iszero\n      tag_170\n      jumpi\n        /* \"#utility.yul\":2329:2408   */\n      tag_171\n      tag_158\n      jump\t// in\n    tag_171:\n        /* \"#utility.yul\":2291:2410   */\n    tag_170:\n        /* \"#utility.yul\":2449:2450   */\n      0x00\n        /* \"#utility.yul\":2474:2527   */\n      tag_172\n        /* \"#utility.yul\":2519:2526   */\n      dup5\n        /* \"#utility.yul\":2510:2516   */\n      dup3\n        /* \"#utility.yul\":2499:2508   */\n      dup6\n        /* \"#utility.yul\":2495:2517   */\n      add\n        /* \"#utility.yul\":2474:2527   */\n      tag_151\n      jump\t// in\n    tag_172:\n        /* \"#utility.yul\":2464:2527   */\n      swap2\n      pop\n        /* \"#utility.yul\":2420:2537   */\n      pop\n        /* \"#utility.yul\":2215:2544   */\n      swap3\n      swap2\n      pop\n      pop\n      jump\t// out\n        /* \"#utility.yul\":2550:2668   */\n    tag_173:\n        /* \"#utility.yul\":2637:2661   */\n      tag_175\n        /* \"#utility.yul\":2655:2660   */\n      dup2\n        /* \"#utility.yul\":2637:2661   */\n      tag_176\n      jump\t// in\n    tag_175:\n        /* \"#utility.yul\":2632:2635   */\n      dup3\n        /* \"#utility.yul\":2625:2662   */\n      mstore\n        /* \"#utility.yul\":2550:2668   */\n      pop\n      pop\n      jump\t// out\n        /* \"#utility.yul\":2674:2783   */\n    tag_177:\n        /* \"#utility.yul\":2755:2776   */\n      tag_179\n        /* \"#utility.yul\":2770:2775   */\n      dup2\n        /* \"#utility.yul\":2755:2776   */\n      tag_180\n      jump\t// in\n    tag_179:\n        /* \"#utility.yul\":2750:2753   */\n      dup3\n        /* \"#utility.yul\":2743:2777   */\n      mstore\n        /* \"#utility.yul\":2674:2783   */\n      pop\n      pop\n      jump\t// out\n        /* \"#utility.yul\":2789:3153   */\n    tag_181:\n        /* \"#utility.yul\":2877:2880   */\n      0x00\n        /* \"#utility.yul\":2905:2944   */\n      tag_183\n        /* \"#utility.yul\":2938:2943   */\n      dup3\n        /* \"#utility.yul\":2905:2944   */\n      tag_184\n      jump\t// in\n    tag_183:\n        /* \"#utility.yul\":2960:3031   */\n      tag_185\n        /* \"#utility.yul\":3024:3030   */\n      dup2\n        /* \"#utility.yul\":3019:3022   */\n      dup6\n        /* \"#utility.yul\":2960:3031   */\n      tag_186\n      jump\t// in\n    tag_185:\n        /* \"#utility.yul\":2953:3031   */\n      swap4\n      pop\n        /* \"#utility.yul\":3040:3092   */\n      tag_187\n        /* \"#utility.yul\":3085:3091   */\n      dup2\n        /* \"#utility.yul\":3080:3083   */\n      dup6\n        /* \"#utility.yul\":3073:3077   */\n      0x20\n        /* \"#utility.yul\":3066:3071   */\n      dup7\n        /* \"#utility.yul\":3062:3078   */\n      add\n        /* \"#utility.yul\":3040:3092   */\n      tag_188\n      jump\t// in\n    tag_187:\n        /* \"#utility.yul\":3117:3146   */\n      tag_189\n        /* \"#utility.yul\":3139:3145   */\n      dup2\n        /* \"#utility.yul\":3117:3146   */\n      tag_190\n      jump\t// in\n    tag_189:\n        /* \"#utility.yul\":3112:3115   */\n      dup5\n        /* \"#utility.yul\":3108:3147   */\n      add\n        /* \"#utility.yul\":3101:3147   */\n      swap2\n      pop\n        /* \"#utility.yul\":2881:3153   */\n      pop\n        /* \"#utility.yul\":2789:3153   */\n      swap3\n      swap2\n      pop\n      pop\n      jump\t// out\n        /* \"#utility.yul\":3159:3277   */\n    tag_191:\n        /* \"#utility.yul\":3246:3270   */\n      tag_193\n        /* \"#utility.yul\":3264:3269   */\n      dup2\n        /* \"#utility.yul\":3246:3270   */\n      tag_194\n      jump\t// in\n    tag_193:\n        /* \"#utility.yul\":3241:3244   */\n      dup3\n        /* \"#utility.yul\":3234:3271   */\n      mstore\n        /* \"#utility.yul\":3159:3277   */\n      pop\n      pop\n      jump\t// out\n        /* \"#utility.yul\":3283:3505   */\n    tag_30:\n        /* \"#utility.yul\":3376:3380   */\n      0x00\n        /* \"#utility.yul\":3414:3416   */\n      0x20\n        /* \"#utility.yul\":3403:3412   */\n      dup3\n        /* \"#utility.yul\":3399:3417   */\n      add\n        /* \"#utility.yul\":3391:3417   */\n      swap1\n      pop\n        /* \"#utility.yul\":3427:3498   */\n      tag_196\n        /* \"#utility.yul\":3495:3496   */\n      0x00\n        /* \"#utility.yul\":3484:3493   */\n      dup4\n        /* \"#utility.yul\":3480:3497   */\n      add\n        /* \"#utility.yul\":3471:3477   */\n      dup5\n        /* \"#utility.yul\":3427:3498   */\n      tag_173\n      jump\t// in\n    tag_196:\n        /* \"#utility.yul\":3283:3505   */\n      swap3\n      swap2\n      pop\n      pop\n      jump\t// out\n        /* \"#utility.yul\":3511:3721   */\n    tag_25:\n        /* \"#utility.yul\":3598:3602   */\n      0x00\n        /* \"#utility.yul\":3636:3638   */\n      0x20\n        /* \"#utility.yul\":3625:3634   */\n      dup3\n        /* \"#utility.yul\":3621:3639   */\n      add\n        /* \"#utility.yul\":3613:3639   */\n      swap1\n      pop\n        /* \"#utility.yul\":3649:3714   */\n      tag_198\n        /* \"#utility.yul\":3711:3712   */\n      0x00\n        /* \"#utility.yul\":3700:3709   */\n      dup4\n        /* \"#utility.yul\":3696:3713   */\n      add\n        /* \"#utility.yul\":3687:3693   */\n      dup5\n        /* \"#utility.yul\":3649:3714   */\n      tag_177\n      jump\t// in\n    tag_198:\n        /* \"#utility.yul\":3511:3721   */\n      swap3\n      swap2\n      pop\n      pop\n      jump\t// out\n        /* \"#utility.yul\":3727:4040   */\n    tag_35:\n        /* \"#utility.yul\":3840:3844   */\n      0x00\n        /* \"#utility.yul\":3878:3880   */\n      0x20\n        /* \"#utility.yul\":3867:3876   */\n      dup3\n        /* \"#utility.yul\":3863:3881   */\n      add\n        /* \"#utility.yul\":3855:3881   */\n      swap1\n      pop\n        /* \"#utility.yul\":3927:3936   */\n      dup2\n        /* \"#utility.yul\":3921:3925   */\n      dup2\n        /* \"#utility.yul\":3917:3937   */\n      sub\n        /* \"#utility.yul\":3913:3914   */\n      0x00\n        /* \"#utility.yul\":3902:3911   */\n      dup4\n        /* \"#utility.yul\":3898:3915   */\n      add\n        /* \"#utility.yul\":3891:3938   */\n      mstore\n        /* \"#utility.yul\":3955:4033   */\n      tag_200\n        /* \"#utility.yul\":4028:4032   */\n      dup2\n        /* \"#utility.yul\":4019:4025   */\n      dup5\n        /* \"#utility.yul\":3955:4033   */\n      tag_181\n      jump\t// in\n    tag_200:\n        /* \"#utility.yul\":3947:4033   */\n      swap1\n      pop\n        /* \"#utility.yul\":3727:4040   */\n      swap3\n      swap2\n      pop\n      pop\n      jump\t// out\n        /* \"#utility.yul\":4046:4912   */\n    tag_60:\n        /* \"#utility.yul\":4299:4303   */\n      0x00\n        /* \"#utility.yul\":4337:4340   */\n      0xc0\n        /* \"#utility.yul\":4326:4335   */\n      dup3\n        /* \"#utility.yul\":4322:4341   */\n      add\n        /* \"#utility.yul\":4314:4341   */\n      swap1\n      pop\n        /* \"#utility.yul\":4387:4396   */\n      dup2\n        /* \"#utility.yul\":4381:4385   */\n      dup2\n        /* \"#utility.yul\":4377:4397   */\n      sub\n        /* \"#utility.yul\":4373:4374   */\n      0x00\n        /* \"#utility.yul\":4362:4371   */\n      dup4\n        /* \"#utility.yul\":4358:4375   */\n      add\n        /* \"#utility.yul\":4351:4398   */\n      mstore\n        /* \"#utility.yul\":4415:4493   */\n      tag_202\n        /* \"#utility.yul\":4488:4492   */\n      dup2\n        /* \"#utility.yul\":4479:4485   */\n      dup10\n        /* \"#utility.yul\":4415:4493   */\n      tag_181\n      jump\t// in\n    tag_202:\n        /* \"#utility.yul\":4407:4493   */\n      swap1\n      pop\n        /* \"#utility.yul\":4503:4575   */\n      tag_203\n        /* \"#utility.yul\":4571:4573   */\n      0x20\n        /* \"#utility.yul\":4560:4569   */\n      dup4\n        /* \"#utility.yul\":4556:4574   */\n      add\n        /* \"#utility.yul\":4547:4553   */\n      dup9\n        /* \"#utility.yul\":4503:4575   */\n      tag_173\n      jump\t// in\n    tag_203:\n        /* \"#utility.yul\":4585:4657   */\n      tag_204\n        /* \"#utility.yul\":4653:4655   */\n      0x40\n        /* \"#utility.yul\":4642:4651   */\n      dup4\n        /* \"#utility.yul\":4638:4656   */\n      add\n        /* \"#utility.yul\":4629:4635   */\n      dup8\n        /* \"#utility.yul\":4585:4657   */\n      tag_191\n      jump\t// in\n    tag_204:\n        /* \"#utility.yul\":4667:4739   */\n      tag_205\n        /* \"#utility.yul\":4735:4737   */\n      0x60\n        /* \"#utility.yul\":4724:4733   */\n      dup4\n        /* \"#utility.yul\":4720:4738   */\n      add\n        /* \"#utility.yul\":4711:4717   */\n      dup7\n        /* \"#utility.yul\":4667:4739   */\n      tag_191\n      jump\t// in\n    tag_205:\n        /* \"#utility.yul\":4749:4822   */\n      tag_206\n        /* \"#utility.yul\":4817:4820   */\n      0x80\n        /* \"#utility.yul\":4806:4815   */\n      dup4\n        /* \"#utility.yul\":4802:4821   */\n      add\n        /* \"#utility.yul\":4793:4799   */\n      dup6\n        /* \"#utility.yul\":4749:4822   */\n      tag_191\n      jump\t// in\n    tag_206:\n        /* \"#utility.yul\":4832:4905   */\n      tag_207\n        /* \"#utility.yul\":4900:4903   */\n      0xa0\n        /* \"#utility.yul\":4889:4898   */\n      dup4\n        /* \"#utility.yul\":4885:4904   */\n      add\n        /* \"#utility.yul\":4876:4882   */\n      dup5\n        /* \"#utility.yul\":4832:4905   */\n      tag_191\n      jump\t// in\n    tag_207:\n        /* \"#utility.yul\":4046:4912   */\n      swap8\n      swap7\n      pop\n      pop\n      pop\n      pop\n      pop\n      pop\n      pop\n      jump\t// out\n        /* \"#utility.yul\":4918:5661   */\n    tag_41:\n        /* \"#utility.yul\":5137:5141   */\n      0x00\n        /* \"#utility.yul\":5175:5178   */\n      0xa0\n        /* \"#utility.yul\":5164:5173   */\n      dup3\n        /* \"#utility.yul\":5160:5179   */\n      add\n        /* \"#utility.yul\":5152:5179   */\n      swap1\n      pop\n        /* \"#utility.yul\":5225:5234   */\n      dup2\n        /* \"#utility.yul\":5219:5223   */\n      dup2\n        /* \"#utility.yul\":5215:5235   */\n      sub\n        /* \"#utility.yul\":5211:5212   */\n      0x00\n        /* \"#utility.yul\":5200:5209   */\n      dup4\n        /* \"#utility.yul\":5196:5213   */\n      add\n        /* \"#utility.yul\":5189:5236   */\n      mstore\n        /* \"#utility.yul\":5253:5331   */\n      tag_209\n        /* \"#utility.yul\":5326:5330   */\n      dup2\n        /* \"#utility.yul\":5317:5323   */\n      dup9\n        /* \"#utility.yul\":5253:5331   */\n      tag_181\n      jump\t// in\n    tag_209:\n        /* \"#utility.yul\":5245:5331   */\n      swap1\n      pop\n        /* \"#utility.yul\":5341:5413   */\n      tag_210\n        /* \"#utility.yul\":5409:5411   */\n      0x20\n        /* \"#utility.yul\":5398:5407   */\n      dup4\n        /* \"#utility.yul\":5394:5412   */\n      add\n        /* \"#utility.yul\":5385:5391   */\n      dup8\n        /* \"#utility.yul\":5341:5413   */\n      tag_191\n      jump\t// in\n    tag_210:\n        /* \"#utility.yul\":5423:5495   */\n      tag_211\n        /* \"#utility.yul\":5491:5493   */\n      0x40\n        /* \"#utility.yul\":5480:5489   */\n      dup4\n        /* \"#utility.yul\":5476:5494   */\n      add\n        /* \"#utility.yul\":5467:5473   */\n      dup7\n        /* \"#utility.yul\":5423:5495   */\n      tag_173\n      jump\t// in\n    tag_211:\n        /* \"#utility.yul\":5505:5571   */\n      tag_212\n        /* \"#utility.yul\":5567:5569   */\n      0x60\n        /* \"#utility.yul\":5556:5565   */\n      dup4\n        /* \"#utility.yul\":5552:5570   */\n      add\n        /* \"#utility.yul\":5543:5549   */\n      dup6\n        /* \"#utility.yul\":5505:5571   */\n      tag_177\n      jump\t// in\n    tag_212:\n        /* \"#utility.yul\":5581:5654   */\n      tag_213\n        /* \"#utility.yul\":5649:5652   */\n      0x80\n        /* \"#utility.yul\":5638:5647   */\n      dup4\n        /* \"#utility.yul\":5634:5653   */\n      add\n        /* \"#utility.yul\":5625:5631   */\n      dup5\n        /* \"#utility.yul\":5581:5654   */\n      tag_191\n      jump\t// in\n    tag_213:\n        /* \"#utility.yul\":4918:5661   */\n      swap7\n      swap6\n      pop\n      pop\n      pop\n      pop\n      pop\n      pop\n      jump\t// out\n        /* \"#utility.yul\":5667:5889   */\n    tag_46:\n        /* \"#utility.yul\":5760:5764   */\n      0x00\n        /* \"#utility.yul\":5798:5800   */\n      0x20\n        /* \"#utility.yul\":5787:5796   */\n      dup3\n        /* \"#utility.yul\":5783:5801   */\n      add\n        /* \"#utility.yul\":5775:5801   */\n      swap1\n      pop\n        /* \"#utility.yul\":5811:5882   */\n      tag_215\n        /* \"#utility.yul\":5879:5880   */\n      0x00\n        /* \"#utility.yul\":5868:5877   */\n      dup4\n        /* \"#utility.yul\":5864:5881   */\n      add\n        /* \"#utility.yul\":5855:5861   */\n      dup5\n        /* \"#utility.yul\":5811:5882   */\n      tag_191\n      jump\t// in\n    tag_215:\n        /* \"#utility.yul\":5667:5889   */\n      swap3\n      swap2\n      pop\n      pop\n      jump\t// out\n        /* \"#utility.yul\":5895:6024   */\n    tag_135:\n        /* \"#utility.yul\":5929:5935   */\n      0x00\n        /* \"#utility.yul\":5956:5976   */\n      tag_217\n      tag_218\n      jump\t// in\n    tag_217:\n        /* \"#utility.yul\":5946:5976   */\n      swap1\n      pop\n        /* \"#utility.yul\":5985:6018   */\n      tag_219\n        /* \"#utility.yul\":6013:6017   */\n      dup3\n        /* \"#utility.yul\":6005:6011   */\n      dup3\n        /* \"#utility.yul\":5985:6018   */\n      tag_220\n      jump\t// in\n    tag_219:\n        /* \"#utility.yul\":5895:6024   */\n      swap2\n      swap1\n      pop\n      jump\t// out\n        /* \"#utility.yul\":6030:6105   */\n    tag_218:\n        /* \"#utility.yul\":6063:6069   */\n      0x00\n        /* \"#utility.yul\":6096:6098   */\n      0x40\n        /* \"#utility.yul\":6090:6099   */\n      mload\n        /* \"#utility.yul\":6080:6099   */\n      swap1\n      pop\n        /* \"#utility.yul\":6030:6105   */\n      swap1\n      jump\t// out\n        /* \"#utility.yul\":6111:6419   */\n    tag_134:\n        /* \"#utility.yul\":6173:6177   */\n      0x00\n        /* \"#utility.yul\":6263:6281   */\n      0xffffffffffffffff\n        /* \"#utility.yul\":6255:6261   */\n      dup3\n        /* \"#utility.yul\":6252:6282   */\n      gt\n        /* \"#utility.yul\":6249:6305   */\n      iszero\n      tag_223\n      jumpi\n        /* \"#utility.yul\":6285:6303   */\n      tag_224\n      tag_225\n      jump\t// in\n    tag_224:\n        /* \"#utility.yul\":6249:6305   */\n    tag_223:\n        /* \"#utility.yul\":6323:6352   */\n      tag_226\n        /* \"#utility.yul\":6345:6351   */\n      dup3\n        /* \"#utility.yul\":6323:6352   */\n      tag_190\n      jump\t// in\n    tag_226:\n        /* \"#utility.yul\":6315:6352   */\n      swap1\n      pop\n        /* \"#utility.yul\":6407:6411   */\n      0x20\n        /* \"#utility.yul\":6401:6405   */\n      dup2\n        /* \"#utility.yul\":6397:6412   */\n      add\n        /* \"#utility.yul\":6389:6412   */\n      swap1\n      pop\n        /* \"#utility.yul\":6111:6419   */\n      swap2\n      swap1\n      pop\n      jump\t// out\n        /* \"#utility.yul\":6425:6524   */\n    tag_184:\n        /* \"#utility.yul\":6477:6483   */\n      0x00\n        /* \"#utility.yul\":6511:6516   */\n      dup2\n        /* \"#utility.yul\":6505:6517   */\n      mload\n        /* \"#utility.yul\":6495:6517   */\n      swap1\n      pop\n        /* \"#utility.yul\":6425:6524   */\n      swap2\n      swap1\n      pop\n      jump\t// out\n        /* \"#utility.yul\":6530:6699   */\n    tag_186:\n        /* \"#utility.yul\":6614:6625   */\n      0x00\n        /* \"#utility.yul\":6648:6654   */\n      dup3\n        /* \"#utility.yul\":6643:6646   */\n      dup3\n        /* \"#utility.yul\":6636:6655   */\n      mstore\n        /* \"#utility.yul\":6688:6692   */\n      0x20\n        /* \"#utility.yul\":6683:6686   */\n      dup3\n        /* \"#utility.yul\":6679:6693   */\n      add\n        /* \"#utility.yul\":6664:6693   */\n      swap1\n      pop\n        /* \"#utility.yul\":6530:6699   */\n      swap3\n      swap2\n      pop\n      pop\n      jump\t// out\n        /* \"#utility.yul\":6705:6890   */\n    tag_77:\n        /* \"#utility.yul\":6745:6746   */\n      0x00\n        /* \"#utility.yul\":6762:6782   */\n      tag_230\n        /* \"#utility.yul\":6780:6781   */\n      dup3\n        /* \"#utility.yul\":6762:6782   */\n      tag_194\n      jump\t// in\n    tag_230:\n        /* \"#utility.yul\":6757:6782   */\n      swap2\n      pop\n        /* \"#utility.yul\":6796:6816   */\n      tag_231\n        /* \"#utility.yul\":6814:6815   */\n      dup4\n        /* \"#utility.yul\":6796:6816   */\n      tag_194\n      jump\t// in\n    tag_231:\n        /* \"#utility.yul\":6791:6816   */\n      swap3\n      pop\n        /* \"#utility.yul\":6835:6836   */\n      dup3\n        /* \"#utility.yul\":6825:6860   */\n      tag_232\n      jumpi\n        /* \"#utility.yul\":6840:6858   */\n      tag_233\n      tag_234\n      jump\t// in\n    tag_233:\n        /* \"#utility.yul\":6825:6860   */\n    tag_232:\n        /* \"#utility.yul\":6882:6883   */\n      dup3\n        /* \"#utility.yul\":6879:6880   */\n      dup3\n        /* \"#utility.yul\":6875:6884   */\n      div\n        /* \"#utility.yul\":6870:6884   */\n      swap1\n      pop\n        /* \"#utility.yul\":6705:6890   */\n      swap3\n      swap2\n      pop\n      pop\n      jump\t// out\n        /* \"#utility.yul\":6896:6992   */\n    tag_176:\n        /* \"#utility.yul\":6933:6940   */\n      0x00\n        /* \"#utility.yul\":6962:6986   */\n      tag_236\n        /* \"#utility.yul\":6980:6985   */\n      dup3\n        /* \"#utility.yul\":6962:6986   */\n      tag_237\n      jump\t// in\n    tag_236:\n        /* \"#utility.yul\":6951:6986   */\n      swap1\n      pop\n        /* \"#utility.yul\":6896:6992   */\n      swap2\n      swap1\n      pop\n      jump\t// out\n        /* \"#utility.yul\":6998:7088   */\n    tag_180:\n        /* \"#utility.yul\":7032:7039   */\n      0x00\n        /* \"#utility.yul\":7075:7080   */\n      dup2\n        /* \"#utility.yul\":7068:7081   */\n      iszero\n        /* \"#utility.yul\":7061:7082   */\n      iszero\n        /* \"#utility.yul\":7050:7082   */\n      swap1\n      pop\n        /* \"#utility.yul\":6998:7088   */\n      swap2\n      swap1\n      pop\n      jump\t// out\n        /* \"#utility.yul\":7094:7220   */\n    tag_237:\n        /* \"#utility.yul\":7131:7138   */\n      0x00\n        /* \"#utility.yul\":7171:7213   */\n      0xffffffffffffffffffffffffffffffffffffffff\n        /* \"#utility.yul\":7164:7169   */\n      dup3\n        /* \"#utility.yul\":7160:7214   */\n      and\n        /* \"#utility.yul\":7149:7214   */\n      swap1\n      pop\n        /* \"#utility.yul\":7094:7220   */\n      swap2\n      swap1\n      pop\n      jump\t// out\n        /* \"#utility.yul\":7226:7303   */\n    tag_194:\n        /* \"#utility.yul\":7263:7270   */\n      0x00\n        /* \"#utility.yul\":7292:7297   */\n      dup2\n        /* \"#utility.yul\":7281:7297   */\n      swap1\n      pop\n        /* \"#utility.yul\":7226:7303   */\n      swap2\n      swap1\n      pop\n      jump\t// out\n        /* \"#utility.yul\":7309:7463   */\n    tag_140:\n        /* \"#utility.yul\":7393:7399   */\n      dup3\n        /* \"#utility.yul\":7388:7391   */\n      dup2\n        /* \"#utility.yul\":7383:7386   */\n      dup4\n        /* \"#utility.yul\":7370:7400   */\n      calldatacopy\n        /* \"#utility.yul\":7455:7456   */\n      0x00\n        /* \"#utility.yul\":7446:7452   */\n      dup4\n        /* \"#utility.yul\":7441:7444   */\n      dup4\n        /* \"#utility.yul\":7437:7453   */\n      add\n        /* \"#utility.yul\":7430:7457   */\n      mstore\n        /* \"#utility.yul\":7309:7463   */\n      pop\n      pop\n      pop\n      jump\t// out\n        /* \"#utility.yul\":7469:7776   */\n    tag_188:\n        /* \"#utility.yul\":7537:7538   */\n      0x00\n        /* \"#utility.yul\":7547:7660   */\n    tag_243:\n        /* \"#utility.yul\":7561:7567   */\n      dup4\n        /* \"#utility.yul\":7558:7559   */\n      dup2\n        /* \"#utility.yul\":7555:7568   */\n      lt\n        /* \"#utility.yul\":7547:7660   */\n      iszero\n      tag_245\n      jumpi\n        /* \"#utility.yul\":7646:7647   */\n      dup1\n        /* \"#utility.yul\":7641:7644   */\n      dup3\n        /* \"#utility.yul\":7637:7648   */\n      add\n        /* \"#utility.yul\":7631:7649   */\n      mload\n        /* \"#utility.yul\":7627:7628   */\n      dup2\n        /* \"#utility.yul\":7622:7625   */\n      dup5\n        /* \"#utility.yul\":7618:7629   */\n      add\n        /* \"#utility.yul\":7611:7650   */\n      mstore\n        /* \"#utility.yul\":7583:7585   */\n      0x20\n        /* \"#utility.yul\":7580:7581   */\n      dup2\n        /* \"#utility.yul\":7576:7586   */\n      add\n        /* \"#utility.yul\":7571:7586   */\n      swap1\n      pop\n        /* \"#utility.yul\":7547:7660   */\n      jump(tag_243)\n    tag_245:\n        /* \"#utility.yul\":7678:7684   */\n      dup4\n        /* \"#utility.yul\":7675:7676   */\n      dup2\n        /* \"#utility.yul\":7672:7685   */\n      gt\n        /* \"#utility.yul\":7669:7770   */\n      iszero\n      tag_246\n      jumpi\n        /* \"#utility.yul\":7758:7759   */\n      0x00\n        /* \"#utility.yul\":7749:7755   */\n      dup5\n        /* \"#utility.yul\":7744:7747   */\n      dup5\n        /* \"#utility.yul\":7740:7756   */\n      add\n        /* \"#utility.yul\":7733:7760   */\n      mstore\n        /* \"#utility.yul\":7669:7770   */\n    tag_246:\n        /* \"#utility.yul\":7518:7776   */\n      pop\n        /* \"#utility.yul\":7469:7776   */\n      pop\n      pop\n      pop\n      jump\t// out\n        /* \"#utility.yul\":7782:8102   */\n    tag_83:\n        /* \"#utility.yul\":7826:7832   */\n      0x00\n        /* \"#utility.yul\":7863:7864   */\n      0x02\n        /* \"#utility.yul\":7857:7861   */\n      dup3\n        /* \"#utility.yul\":7853:7865   */\n      div\n        /* \"#utility.yul\":7843:7865   */\n      swap1\n      pop\n        /* \"#utility.yul\":7910:7911   */\n      0x01\n        /* \"#utility.yul\":7904:7908   */\n      dup3\n        /* \"#utility.yul\":7900:7912   */\n      and\n        /* \"#utility.yul\":7931:7949   */\n      dup1\n        /* \"#utility.yul\":7921:8002   */\n      tag_248\n      jumpi\n        /* \"#utility.yul\":7987:7991   */\n      0x7f\n        /* \"#utility.yul\":7979:7985   */\n      dup3\n        /* \"#utility.yul\":7975:7992   */\n      and\n        /* \"#utility.yul\":7965:7992   */\n      swap2\n      pop\n        /* \"#utility.yul\":7921:8002   */\n    tag_248:\n        /* \"#utility.yul\":8049:8051   */\n      0x20\n        /* \"#utility.yul\":8041:8047   */\n      dup3\n        /* \"#utility.yul\":8038:8052   */\n      lt\n        /* \"#utility.yul\":8018:8036   */\n      dup2\n        /* \"#utility.yul\":8015:8053   */\n      eq\n        /* \"#utility.yul\":8012:8096   */\n      iszero\n      tag_249\n      jumpi\n        /* \"#utility.yul\":8068:8086   */\n      tag_250\n      tag_251\n      jump\t// in\n    tag_250:\n        /* \"#utility.yul\":8012:8096   */\n    tag_249:\n        /* \"#utility.yul\":7833:8102   */\n      pop\n        /* \"#utility.yul\":7782:8102   */\n      swap2\n      swap1\n      pop\n      jump\t// out\n        /* \"#utility.yul\":8108:8389   */\n    tag_220:\n        /* \"#utility.yul\":8191:8218   */\n      tag_253\n        /* \"#utility.yul\":8213:8217   */\n      dup3\n        /* \"#utility.yul\":8191:8218   */\n      tag_190\n      jump\t// in\n    tag_253:\n        /* \"#utility.yul\":8183:8189   */\n      dup2\n        /* \"#utility.yul\":8179:8219   */\n      add\n        /* \"#utility.yul\":8321:8327   */\n      dup2\n        /* \"#utility.yul\":8309:8319   */\n      dup2\n        /* \"#utility.yul\":8306:8328   */\n      lt\n        /* \"#utility.yul\":8285:8303   */\n      0xffffffffffffffff\n        /* \"#utility.yul\":8273:8283   */\n      dup3\n        /* \"#utility.yul\":8270:8304   */\n      gt\n        /* \"#utility.yul\":8267:8329   */\n      or\n        /* \"#utility.yul\":8264:8352   */\n      iszero\n      tag_254\n      jumpi\n        /* \"#utility.yul\":8332:8350   */\n      tag_255\n      tag_225\n      jump\t// in\n    tag_255:\n        /* \"#utility.yul\":8264:8352   */\n    tag_254:\n        /* \"#utility.yul\":8372:8382   */\n      dup1\n        /* \"#utility.yul\":8368:8370   */\n      0x40\n        /* \"#utility.yul\":8361:8383   */\n      mstore\n        /* \"#utility.yul\":8151:8389   */\n      pop\n        /* \"#utility.yul\":8108:8389   */\n      pop\n      pop\n      jump\t// out\n        /* \"#utility.yul\":8395:8628   */\n    tag_102:\n        /* \"#utility.yul\":8434:8437   */\n      0x00\n        /* \"#utility.yul\":8457:8481   */\n      tag_257\n        /* \"#utility.yul\":8475:8480   */\n      dup3\n        /* \"#utility.yul\":8457:8481   */\n      tag_194\n      jump\t// in\n    tag_257:\n        /* \"#utility.yul\":8448:8481   */\n      swap2\n      pop\n        /* \"#utility.yul\":8503:8569   */\n      0xffffffffffffffffffffffffffffffffffffffffffffffffffffffffffffffff\n        /* \"#utility.yul\":8496:8501   */\n      dup3\n        /* \"#utility.yul\":8493:8570   */\n      eq\n        /* \"#utility.yul\":8490:8593   */\n      iszero\n      tag_258\n      jumpi\n        /* \"#utility.yul\":8573:8591   */\n      tag_259\n      tag_260\n      jump\t// in\n    tag_259:\n        /* \"#utility.yul\":8490:8593   */\n    tag_258:\n        /* \"#utility.yul\":8620:8621   */\n      0x01\n        /* \"#utility.yul\":8613:8618   */\n      dup3\n        /* \"#utility.yul\":8609:8622   */\n      add\n        /* \"#utility.yul\":8602:8622   */\n      swap1\n      pop\n        /* \"#utility.yul\":8395:8628   */\n      swap2\n      swap1\n      pop\n      jump\t// out\n        /* \"#utility.yul\":8634:8814   */\n    tag_260:\n        /* \"#utility.yul\":8682:8759   */\n      0x4e487b7100000000000000000000000000000000000000000000000000000000\n        /* \"#utility.yul\":8679:8680   */\n      0x00\n        /* \"#utility.yul\":8672:8760   */\n      mstore\n        /* \"#utility.yul\":8779:8783   */\n      0x11\n        /* \"#utility.yul\":8776:8777   */\n      0x04\n        /* \"#utility.yul\":8769:8784   */\n      mstore\n        /* \"#utility.yul\":8803:8807   */\n      0x24\n        /* \"#utility.yul\":8800:8801   */\n      0x00\n        /* \"#utility.yul\":8793:8808   */\n      revert\n        /* \"#utility.yul\":8820:9000   */\n    tag_234:\n        /* \"#utility.yul\":8868:8945   */\n      0x4e487b7100000000000000000000000000000000000000000000000000000000\n        /* \"#utility.yul\":8865:8866   */\n      0x00\n        /* \"#utility.yul\":8858:8946   */\n      mstore\n        /* \"#utility.yul\":8965:8969   */\n      0x12\n        /* \"#utility.yul\":8962:8963   */\n      0x04\n        /* \"#utility.yul\":8955:8970   */\n      mstore\n        /* \"#utility.yul\":8989:8993   */\n      0x24\n        /* \"#utility.yul\":8986:8987   */\n      0x00\n        /* \"#utility.yul\":8979:8994   */\n      revert\n        /* \"#utility.yul\":9006:9186   */\n    tag_251:\n        /* \"#utility.yul\":9054:9131   */\n      0x4e487b7100000000000000000000000000000000000000000000000000000000\n        /* \"#utility.yul\":9051:9052   */\n      0x00\n        /* \"#utility.yul\":9044:9132   */\n      mstore\n        /* \"#utility.yul\":9151:9155   */\n      0x22\n        /* \"#utility.yul\":9148:9149   */\n      0x04\n        /* \"#utility.yul\":9141:9156   */\n      mstore\n        /* \"#utility.yul\":9175:9179   */\n      0x24\n        /* \"#utility.yul\":9172:9173   */\n      0x00\n        /* \"#utility.yul\":9165:9180   */\n      revert\n        /* \"#utility.yul\":9192:9372   */\n    tag_74:\n        /* \"#utility.yul\":9240:9317   */\n      0x4e487b7100000000000000000000000000000000000000000000000000000000\n        /* \"#utility.yul\":9237:9238   */\n      0x00\n        /* \"#utility.yul\":9230:9318   */\n      mstore\n        /* \"#utility.yul\":9337:9341   */\n      0x32\n        /* \"#utility.yul\":9334:9335   */\n      0x04\n        /* \"#utility.yul\":9327:9342   */\n      mstore\n        /* \"#utility.yul\":9361:9365   */\n      0x24\n        /* \"#utility.yul\":9358:9359   */\n      0x00\n        /* \"#utility.yul\":9351:9366   */\n      revert\n        /* \"#utility.yul\":9378:9558   */\n    tag_225:\n        /* \"#utility.yul\":9426:9503   */\n      0x4e487b7100000000000000000000000000000000000000000000000000000000\n        /* \"#utility.yul\":9423:9424   */\n      0x00\n        /* \"#utility.yul\":9416:9504   */\n      mstore\n        /* \"#utility.yul\":9523:9527   */\n      0x41\n        /* \"#utility.yul\":9520:9521   */\n      0x04\n        /* \"#utility.yul\":9513:9528   */\n      mstore\n        /* \"#utility.yul\":9547:9551   */\n      0x24\n        /* \"#utility.yul\":9544:9545   */\n      0x00\n        /* \"#utility.yul\":9537:9552   */\n      revert\n        /* \"#utility.yul\":9564:9681   */\n    tag_149:\n        /* \"#utility.yul\":9673:9674   */\n      0x00\n        /* \"#utility.yul\":9670:9671   */\n      dup1\n        /* \"#utility.yul\":9663:9675   */\n      revert\n        /* \"#utility.yul\":9687:9804   */\n    tag_138:\n        /* \"#utility.yul\":9796:9797   */\n      0x00\n        /* \"#utility.yul\":9793:9794   */\n      dup1\n        /* \"#utility.yul\":9786:9798   */\n      revert\n        /* \"#utility.yul\":9810:9927   */\n    tag_165:\n        /* \"#utility.yul\":9919:9920   */\n      0x00\n        /* \"#utility.yul\":9916:9917   */\n      dup1\n        /* \"#utility.yul\":9909:9921   */\n      revert\n        /* \"#utility.yul\":9933:10050   */\n    tag_158:\n        /* \"#utility.yul\":10042:10043   */\n      0x00\n        /* \"#utility.yul\":10039:10040   */\n      dup1\n        /* \"#utility.yul\":10032:10044   */\n      revert\n        /* \"#utility.yul\":10056:10158   */\n    tag_190:\n        /* \"#utility.yul\":10097:10103   */\n      0x00\n        /* \"#utility.yul\":10148:10150   */\n      0x1f\n        /* \"#utility.yul\":10144:10151   */\n      not\n        /* \"#utility.yul\":10139:10141   */\n      0x1f\n        /* \"#utility.yul\":10132:10137   */\n      dup4\n        /* \"#utility.yul\":10128:10142   */\n      add\n        /* \"#utility.yul\":10124:10152   */\n      and\n        /* \"#utility.yul\":10114:10152   */\n      swap1\n      pop\n        /* \"#utility.yul\":10056:10158   */\n      swap2\n      swap1\n      pop\n      jump\t// out\n        /* \"#utility.yul\":10164:10286   */\n    tag_144:\n        /* \"#utility.yul\":10237:10261   */\n      tag_272\n        /* \"#utility.yul\":10255:10260   */\n      dup2\n        /* \"#utility.yul\":10237:10261   */\n      tag_176\n      jump\t// in\n    tag_272:\n        /* \"#utility.yul\":10230:10235   */\n      dup2\n        /* \"#utility.yul\":10227:10262   */\n      eq\n        /* \"#utility.yul\":10217:10280   */\n      tag_273\n      jumpi\n        /* \"#utility.yul\":10276:10277   */\n      0x00\n        /* \"#utility.yul\":10273:10274   */\n      dup1\n        /* \"#utility.yul\":10266:10278   */\n      revert\n        /* \"#utility.yul\":10217:10280   */\n    tag_273:\n        /* \"#utility.yul\":10164:10286   */\n      pop\n      jump\t// out\n        /* \"#utility.yul\":10292:10414   */\n    tag_154:\n        /* \"#utility.yul\":10365:10389   */\n      tag_275\n        /* \"#utility.yul\":10383:10388   */\n      dup2\n        /* \"#utility.yul\":10365:10389   */\n      tag_194\n      jump\t// in\n    tag_275:\n        /* \"#utility.yul\":10358:10363   */\n      dup2\n        /* \"#utility.yul\":10355:10390   */\n      eq\n        /* \"#utility.yul\":10345:10408   */\n      tag_276\n      jumpi\n        /* \"#utility.yul\":10404:10405   */\n      0x00\n        /* \"#utility.yul\":10401:10402   */\n      dup1\n        /* \"#utility.yul\":10394:10406   */\n      revert\n        /* \"#utility.yul\":10345:10408   */\n    tag_276:\n        /* \"#utility.yul\":10292:10414   */\n      pop\n      jump\t// out\n\n    auxdata: 0xa264697066735822122057fb6a167d78b6057f9a5288ae858e017cf977b2eda03d84c9b3843b3c25d44f64736f6c63430008070033\n}\n","bytecode":{"linkReferences":{},"object":"60806040523480156200001157600080fd5b50604051620014b2380380620014b28339818101604052810190620000379190620001fd565b80600160006101000a81548173ffffffffffffffffffffffffffffffffffffffff021916908373ffffffffffffffffffffffffffffffffffffffff16021790555081600281905550826000908051906020019062000097929190620000a1565b505050506200046e565b828054620000af906200034b565b90600052602060002090601f016020900481019282620000d357600085556200011f565b82601f10620000ee57805160ff19168380011785556200011f565b828001600101855582156200011f579182015b828111156200011e57825182559160200191906001019062000101565b5b5090506200012e919062000132565b5090565b5b808211156200014d57600081600090555060010162000133565b5090565b6000620001686200016284620002a1565b62000278565b9050828152602081018484840111156200018757620001866200041a565b5b6200019484828562000315565b509392505050565b600081519050620001ad816200043a565b92915050565b600082601f830112620001cb57620001ca62000415565b5b8151620001dd84826020860162000151565b91505092915050565b600081519050620001f78162000454565b92915050565b60008060006060848603121562000219576200021862000424565b5b600084015167ffffffffffffffff8111156200023a57620002396200041f565b5b6200024886828701620001b3565b93505060206200025b86828701620001e6565b92505060406200026e868287016200019c565b9150509250925092565b60006200028462000297565b905062000292828262000381565b919050565b6000604051905090565b600067ffffffffffffffff821115620002bf57620002be620003e6565b5b620002ca8262000429565b9050602081019050919050565b6000620002e482620002eb565b9050919050565b600073ffffffffffffffffffffffffffffffffffffffff82169050919050565b6000819050919050565b60005b838110156200033557808201518184015260208101905062000318565b8381111562000345576000848401525b50505050565b600060028204905060018216806200036457607f821691505b602082108114156200037b576200037a620003b7565b5b50919050565b6200038c8262000429565b810181811067ffffffffffffffff82111715620003ae57620003ad620003e6565b5b80604052505050565b7f4e487b7100000000000000000000000000000000000000000000000000000000600052602260045260246000fd5b7f4e487b7100000000000000000000000000000000000000000000000000000000600052604160045260246000fd5b600080fd5b600080fd5b600080fd5b600080fd5b6000601f19601f8301169050919050565b6200044581620002d7565b81146200045157600080fd5b50565b6200045f816200030b565b81146200046b57600080fd5b50565b611034806200047e6000396000f3fe6080604052600436106100a75760003560e01c80638a9cfd55116100645780638a9cfd55146101c7578063937e09b1146101f0578063b16a867c1461021b578063d7bb99ba1461024b578063d7d1bbdb14610255578063fbfa4b7f1461027e576100a7565b806303441006146100ac5780630a144391146100c8578063481c6a75146101055780637284e4161461013057806381d12c581461015b57806382fde0931461019c575b600080fd5b6100c660048036038101906100c19190610b1f565b6102a9565b005b3480156100d457600080fd5b506100ef60048036038101906100ea9190610a83565b610399565b6040516100fc9190610bcd565b60405180910390f35b34801561011157600080fd5b5061011a6103b9565b6040516101279190610bb2565b60405180910390f35b34801561013c57600080fd5b506101456103df565b6040516101529190610be8565b60405180910390f35b34801561016757600080fd5b50610182600480360381019061017d9190610b1f565b61046d565b604051610193959493929190610c72565b60405180910390f35b3480156101a857600080fd5b506101b1610568565b6040516101be9190610ccc565b60405180910390f35b3480156101d357600080fd5b506101ee60048036038101906101e99190610ab0565b61056e565b005b3480156101fc57600080fd5b50610205610696565b6040516102129190610ccc565b60405180910390f35b34801561022757600080fd5b5061023061069c565b60405161024296959493929190610c0a565b60405180910390f35b610253610777565b005b34801561026157600080fd5b5061027c60048036038101906102779190610b1f565b6107f3565b005b34801561028a57600080fd5b50610293610940565b6040516102a09190610ccc565b60405180910390f35b6000600382815481106102bf576102be610f4d565b5b9060005260206000209060050201905060026006546102de9190610d59565b8160040154116102ed57600080fd5b8060020160149054906101000a900460ff161561030957600080fd5b8060020160009054906101000a900473ffffffffffffffffffffffffffffffffffffffff1673ffffffffffffffffffffffffffffffffffffffff166108fc82600101549081150290604051600060405180830381858888f19350505050158015610377573d6000803e3d6000fd5b5060018160020160146101000a81548160ff0219169083151502179055505050565b60056020528060005260406000206000915054906101000a900460ff1681565b600160009054906101000a900473ffffffffffffffffffffffffffffffffffffffff1681565b600080546103ec90610e14565b80601f016020809104026020016040519081016040528092919081815260200182805461041890610e14565b80156104655780601f1061043a57610100808354040283529160200191610465565b820191906000526020600020905b81548152906001019060200180831161044857829003601f168201915b505050505081565b6003818154811061047d57600080fd5b90600052602060002090600502016000915090508060000180546104a090610e14565b80601f01602080910402602001604051908101604052809291908181526020018280546104cc90610e14565b80156105195780601f106104ee57610100808354040283529160200191610519565b820191906000526020600020905b8154815290600101906020018083116104fc57829003601f168201915b5050505050908060010154908060020160009054906101000a900473ffffffffffffffffffffffffffffffffffffffff16908060020160149054906101000a900460ff16908060040154905085565b60065481565b600160009054906101000a900473ffffffffffffffffffffffffffffffffffffffff1673ffffffffffffffffffffffffffffffffffffffff163373ffffffffffffffffffffffffffffffffffffffff16146105c857600080fd5b60006003600181600181540180825580915050039060005260206000209060050201905083816000019080519060200190610604929190610946565b50828160010181905550818160020160006101000a81548173ffffffffffffffffffffffffffffffffffffffff021916908373ffffffffffffffffffffffffffffffffffffffff16021790555060008160020160146101000a81548160ff021916908315150217905550600081600401819055506004600081548092919061068b90610e77565b919050555050505050565b60025481565b6060600080600080600080600160009054906101000a900473ffffffffffffffffffffffffffffffffffffffff16600254600380549050600654478580546106e390610e14565b80601f016020809104026020016040519081016040528092919081815260200182805461070f90610e14565b801561075c5780601f106107315761010080835404028352916020019161075c565b820191906000526020600020905b81548152906001019060200180831161073f57829003601f168201915b50505050509550955095509550955095509550909192939495565b60025434106107f1576001600560003373ffffffffffffffffffffffffffffffffffffffff1673ffffffffffffffffffffffffffffffffffffffff16815260200190815260200160002060006101000a81548160ff021916908315150217905550600660008154809291906107eb90610e77565b91905055505b565b600560003373ffffffffffffffffffffffffffffffffffffffff1673ffffffffffffffffffffffffffffffffffffffff16815260200190815260200160002060009054906101000a900460ff1661084957600080fd5b60006003828154811061085f5761085e610f4d565b5b906000526020600020906005020190508060030160003373ffffffffffffffffffffffffffffffffffffffff1673ffffffffffffffffffffffffffffffffffffffff16815260200190815260200160002060009054906101000a900460ff16156108c857600080fd5b60018160030160003373ffffffffffffffffffffffffffffffffffffffff1673ffffffffffffffffffffffffffffffffffffffff16815260200190815260200160002060006101000a81548160ff02191690831515021790555080600401600081548092919061093790610e77565b91905055505050565b60045481565b82805461095290610e14565b90600052602060002090601f01602090048101928261097457600085556109bb565b82601f1061098d57805160ff19168380011785556109bb565b828001600101855582156109bb579182015b828111156109ba57825182559160200191906001019061099f565b5b5090506109c891906109cc565b5090565b5b808211156109e55760008160009055506001016109cd565b5090565b60006109fc6109f784610d0c565b610ce7565b905082815260208101848484011115610a1857610a17610fb0565b5b610a23848285610dd2565b509392505050565b600081359050610a3a81610fd0565b92915050565b600082601f830112610a5557610a54610fab565b5b8135610a658482602086016109e9565b91505092915050565b600081359050610a7d81610fe7565b92915050565b600060208284031215610a9957610a98610fba565b5b6000610aa784828501610a2b565b91505092915050565b600080600060608486031215610ac957610ac8610fba565b5b600084013567ffffffffffffffff811115610ae757610ae6610fb5565b5b610af386828701610a40565b9350506020610b0486828701610a6e565b9250506040610b1586828701610a2b565b9150509250925092565b600060208284031215610b3557610b34610fba565b5b6000610b4384828501610a6e565b91505092915050565b610b5581610d8a565b82525050565b610b6481610d9c565b82525050565b6000610b7582610d3d565b610b7f8185610d48565b9350610b8f818560208601610de1565b610b9881610fbf565b840191505092915050565b610bac81610dc8565b82525050565b6000602082019050610bc76000830184610b4c565b92915050565b6000602082019050610be26000830184610b5b565b92915050565b60006020820190508181036000830152610c028184610b6a565b905092915050565b600060c0820190508181036000830152610c248189610b6a565b9050610c336020830188610b4c565b610c406040830187610ba3565b610c4d6060830186610ba3565b610c5a6080830185610ba3565b610c6760a0830184610ba3565b979650505050505050565b600060a0820190508181036000830152610c8c8188610b6a565b9050610c9b6020830187610ba3565b610ca86040830186610b4c565b610cb56060830185610b5b565b610cc26080830184610ba3565b9695505050505050565b6000602082019050610ce16000830184610ba3565b92915050565b6000610cf1610d02565b9050610cfd8282610e46565b919050565b6000604051905090565b600067ffffffffffffffff821115610d2757610d26610f7c565b5b610d3082610fbf565b9050602081019050919050565b600081519050919050565b600082825260208201905092915050565b6000610d6482610dc8565b9150610d6f83610dc8565b925082610d7f57610d7e610eef565b5b828204905092915050565b6000610d9582610da8565b9050919050565b60008115159050919050565b600073ffffffffffffffffffffffffffffffffffffffff82169050919050565b6000819050919050565b82818337600083830152505050565b60005b83811015610dff578082015181840152602081019050610de4565b83811115610e0e576000848401525b50505050565b60006002820490506001821680610e2c57607f821691505b60208210811415610e4057610e3f610f1e565b5b50919050565b610e4f82610fbf565b810181811067ffffffffffffffff82111715610e6e57610e6d610f7c565b5b80604052505050565b6000610e8282610dc8565b91507fffffffffffffffffffffffffffffffffffffffffffffffffffffffffffffffff821415610eb557610eb4610ec0565b5b600182019050919050565b7f4e487b7100000000000000000000000000000000000000000000000000000000600052601160045260246000fd5b7f4e487b7100000000000000000000000000000000000000000000000000000000600052601260045260246000fd5b7f4e487b7100000000000000000000000000000000000000000000000000000000600052602260045260246000fd5b7f4e487b7100000000000000000000000000000000000000000000000000000000600052603260045260246000fd5b7f4e487b7100000000000000000000000000000000000000000000000000000000600052604160045260246000fd5b600080fd5b600080fd5b600080fd5b600080fd5b6000601f19601f8301169050919050565b610fd981610d8a565b8114610fe457600080fd5b50565b610ff081610dc8565b8114610ffb57600080fd5b5056fea264697066735822122057fb6a167d78b6057f9a5288ae858e017cf977b2eda03d84c9b3843b3c25d44f64736f6c63430008070033","opcodes":"PUSH1 0x80 PUSH1 0x40 MSTORE CALLVALUE DUP1 ISZERO PUSH3 0x11 JUMPI PUSH1 0x0 DUP1 REVERT JUMPDEST POP PUSH1 0x40 MLOAD PUSH3 0x14B2 CODESIZE SUB DUP1 PUSH3 0x14B2 DUP4 CODECOPY DUP2 DUP2 ADD PUSH1 0x40 MSTORE DUP2 ADD SWAP1 PUSH3 0x37 SWAP2 SWAP1 PUSH3 0x1FD JUMP JUMPDEST DUP1 PUSH1 0x1 PUSH1 0x0 PUSH2 0x100 EXP DUP2 SLOAD DUP2 PUSH20 0xFFFFFFFFFFFFFFFFFFFFFFFFFFFFFFFFFFFFFFFF MUL NOT AND SWAP1 DUP4 PUSH20 0xFFFFFFFFFFFFFFFFFFFFFFFFFFFFFFFFFFFFFFFF AND MUL OR SWAP1 SSTORE POP DUP2 PUSH1 0x2 DUP2 SWAP1 SSTORE POP DUP3 PUSH1 0x0 SWAP1 DUP1 MLOAD SWAP1 PUSH1 0x20 ADD SWAP1 PUSH3 0x97 SWAP3 SWAP2 SWAP1 PUSH3 0xA1 JUMP JUMPDEST POP POP POP POP PUSH3 0x46E JUMP JUMPDEST DUP3 DUP1 SLOAD PUSH3 0xAF SWAP1 PUSH3 0x34B JUMP JUMPDEST SWAP1 PUSH1 0x0 MSTORE PUSH1 0x20 PUSH1 0x0 KECCAK256 SWAP1 PUSH1 0x1F ADD PUSH1 0x20 SWAP1 DIV DUP2 ADD SWAP3 DUP3 PUSH3 0xD3 JUMPI PUSH1 0x0 DUP6 SSTORE PUSH3 0x11F JUMP JUMPDEST DUP3 PUSH1 0x1F LT PUSH3 0xEE JUMPI DUP1 MLOAD PUSH1 0xFF NOT AND DUP4 DUP1 ADD OR DUP6 SSTORE PUSH3 0x11F JUMP JUMPDEST DUP3 DUP1 ADD PUSH1 0x1 ADD DUP6 SSTORE DUP3 ISZERO PUSH3 0x11F JUMPI SWAP2 DUP3 ADD JUMPDEST DUP3 DUP2 GT ISZERO PUSH3 0x11E JUMPI DUP3 MLOAD DUP3 SSTORE SWAP2 PUSH1 0x20 ADD SWAP2 SWAP1 PUSH1 0x1 ADD SWAP1 PUSH3 0x101 JUMP JUMPDEST JUMPDEST POP SWAP1 POP PUSH3 0x12E SWAP2 SWAP1 PUSH3 0x132 JUMP JUMPDEST POP SWAP1 JUMP JUMPDEST JUMPDEST DUP1 DUP3 GT ISZERO PUSH3 0x14D JUMPI PUSH1 0x0 DUP2 PUSH1 0x0 SWAP1 SSTORE POP PUSH1 0x1 ADD PUSH3 0x133 JUMP JUMPDEST POP SWAP1 JUMP JUMPDEST PUSH1 0x0 PUSH3 0x168 PUSH3 0x162 DUP5 PUSH3 0x2A1 JUMP JUMPDEST PUSH3 0x278 JUMP JUMPDEST SWAP1 POP DUP3 DUP2 MSTORE PUSH1 0x20 DUP2 ADD DUP5 DUP5 DUP5 ADD GT ISZERO PUSH3 0x187 JUMPI PUSH3 0x186 PUSH3 0x41A JUMP JUMPDEST JUMPDEST PUSH3 0x194 DUP5 DUP3 DUP6 PUSH3 0x315 JUMP JUMPDEST POP SWAP4 SWAP3 POP POP POP JUMP JUMPDEST PUSH1 0x0 DUP2 MLOAD SWAP1 POP PUSH3 0x1AD DUP2 PUSH3 0x43A JUMP JUMPDEST SWAP3 SWAP2 POP POP JUMP JUMPDEST PUSH1 0x0 DUP3 PUSH1 0x1F DUP4 ADD SLT PUSH3 0x1CB JUMPI PUSH3 0x1CA PUSH3 0x415 JUMP JUMPDEST JUMPDEST DUP2 MLOAD PUSH3 0x1DD DUP5 DUP3 PUSH1 0x20 DUP7 ADD PUSH3 0x151 JUMP JUMPDEST SWAP2 POP POP SWAP3 SWAP2 POP POP JUMP JUMPDEST PUSH1 0x0 DUP2 MLOAD SWAP1 POP PUSH3 0x1F7 DUP2 PUSH3 0x454 JUMP JUMPDEST SWAP3 SWAP2 POP POP JUMP JUMPDEST PUSH1 0x0 DUP1 PUSH1 0x0 PUSH1 0x60 DUP5 DUP7 SUB SLT ISZERO PUSH3 0x219 JUMPI PUSH3 0x218 PUSH3 0x424 JUMP JUMPDEST JUMPDEST PUSH1 0x0 DUP5 ADD MLOAD PUSH8 0xFFFFFFFFFFFFFFFF DUP2 GT ISZERO PUSH3 0x23A JUMPI PUSH3 0x239 PUSH3 0x41F JUMP JUMPDEST JUMPDEST PUSH3 0x248 DUP7 DUP3 DUP8 ADD PUSH3 0x1B3 JUMP JUMPDEST SWAP4 POP POP PUSH1 0x20 PUSH3 0x25B DUP7 DUP3 DUP8 ADD PUSH3 0x1E6 JUMP JUMPDEST SWAP3 POP POP PUSH1 0x40 PUSH3 0x26E DUP7 DUP3 DUP8 ADD PUSH3 0x19C JUMP JUMPDEST SWAP2 POP POP SWAP3 POP SWAP3 POP SWAP3 JUMP JUMPDEST PUSH1 0x0 PUSH3 0x284 PUSH3 0x297 JUMP JUMPDEST SWAP1 POP PUSH3 0x292 DUP3 DUP3 PUSH3 0x381 JUMP JUMPDEST SWAP2 SWAP1 POP JUMP JUMPDEST PUSH1 0x0 PUSH1 0x40 MLOAD SWAP1 POP SWAP1 JUMP JUMPDEST PUSH1 0x0 PUSH8 0xFFFFFFFFFFFFFFFF DUP3 GT ISZERO PUSH3 0x2BF JUMPI PUSH3 0x2BE PUSH3 0x3E6 JUMP JUMPDEST JUMPDEST PUSH3 0x2CA DUP3 PUSH3 0x429 JUMP JUMPDEST SWAP1 POP PUSH1 0x20 DUP2 ADD SWAP1 POP SWAP2 SWAP1 POP JUMP JUMPDEST PUSH1 0x0 PUSH3 0x2E4 DUP3 PUSH3 0x2EB JUMP JUMPDEST SWAP1 POP SWAP2 SWAP1 POP JUMP JUMPDEST PUSH1 0x0 PUSH20 0xFFFFFFFFFFFFFFFFFFFFFFFFFFFFFFFFFFFFFFFF DUP3 AND SWAP1 POP SWAP2 SWAP1 POP JUMP JUMPDEST PUSH1 0x0 DUP2 SWAP1 POP SWAP2 SWAP1 POP JUMP JUMPDEST PUSH1 0x0 JUMPDEST DUP4 DUP2 LT ISZERO PUSH3 0x335 JUMPI DUP1 DUP3 ADD MLOAD DUP2 DUP5 ADD MSTORE PUSH1 0x20 DUP2 ADD SWAP1 POP PUSH3 0x318 JUMP JUMPDEST DUP4 DUP2 GT ISZERO PUSH3 0x345 JUMPI PUSH1 0x0 DUP5 DUP5 ADD MSTORE JUMPDEST POP POP POP POP JUMP JUMPDEST PUSH1 0x0 PUSH1 0x2 DUP3 DIV SWAP1 POP PUSH1 0x1 DUP3 AND DUP1 PUSH3 0x364 JUMPI PUSH1 0x7F DUP3 AND SWAP2 POP JUMPDEST PUSH1 0x20 DUP3 LT DUP2 EQ ISZERO PUSH3 0x37B JUMPI PUSH3 0x37A PUSH3 0x3B7 JUMP JUMPDEST JUMPDEST POP SWAP2 SWAP1 POP JUMP JUMPDEST PUSH3 0x38C DUP3 PUSH3 0x429 JUMP JUMPDEST DUP2 ADD DUP2 DUP2 LT PUSH8 0xFFFFFFFFFFFFFFFF DUP3 GT OR ISZERO PUSH3 0x3AE JUMPI PUSH3 0x3AD PUSH3 0x3E6 JUMP JUMPDEST JUMPDEST DUP1 PUSH1 0x40 MSTORE POP POP POP JUMP JUMPDEST PUSH32 0x4E487B7100000000000000000000000000000000000000000000000000000000 PUSH1 0x0 MSTORE PUSH1 0x22 PUSH1 0x4 MSTORE PUSH1 0x24 PUSH1 0x0 REVERT JUMPDEST PUSH32 0x4E487B7100000000000000000000000000000000000000000000000000000000 PUSH1 0x0 MSTORE PUSH1 0x41 PUSH1 0x4 MSTORE PUSH1 0x24 PUSH1 0x0 REVERT JUMPDEST PUSH1 0x0 DUP1 REVERT JUMPDEST PUSH1 0x0 DUP1 REVERT JUMPDEST PUSH1 0x0 DUP1 REVERT JUMPDEST PUSH1 0x0 DUP1 REVERT JUMPDEST PUSH1 0x0 PUSH1 0x1F NOT PUSH1 0x1F DUP4 ADD AND SWAP1 POP SWAP2 SWAP1 POP JUMP JUMPDEST PUSH3 0x445 DUP2 PUSH3 0x2D7 JUMP JUMPDEST DUP2 EQ PUSH3 0x451 JUMPI PUSH1 0x0 DUP1 REVERT JUMPDEST POP JUMP JUMPDEST PUSH3 0x45F DUP2 PUSH3 0x30B JUMP JUMPDEST DUP2 EQ PUSH3 0x46B JUMPI PUSH1 0x0 DUP1 REVERT JUMPDEST POP JUMP JUMPDEST PUSH2 0x1034 DUP1 PUSH3 0x47E PUSH1 0x0 CODECOPY PUSH1 0x0 RETURN INVALID PUSH1 0x80 PUSH1 0x40 MSTORE PUSH1 0x4 CALLDATASIZE LT PUSH2 0xA7 JUMPI PUSH1 0x0 CALLDATALOAD PUSH1 0xE0 SHR DUP1 PUSH4 0x8A9CFD55 GT PUSH2 0x64 JUMPI DUP1 PUSH4 0x8A9CFD55 EQ PUSH2 0x1C7 JUMPI DUP1 PUSH4 0x937E09B1 EQ PUSH2 0x1F0 JUMPI DUP1 PUSH4 0xB16A867C EQ PUSH2 0x21B JUMPI DUP1 PUSH4 0xD7BB99BA EQ PUSH2 0x24B JUMPI DUP1 PUSH4 0xD7D1BBDB EQ PUSH2 0x255 JUMPI DUP1 PUSH4 0xFBFA4B7F EQ PUSH2 0x27E JUMPI PUSH2 0xA7 JUMP JUMPDEST DUP1 PUSH4 0x3441006 EQ PUSH2 0xAC JUMPI DUP1 PUSH4 0xA144391 EQ PUSH2 0xC8 JUMPI DUP1 PUSH4 0x481C6A75 EQ PUSH2 0x105 JUMPI DUP1 PUSH4 0x7284E416 EQ PUSH2 0x130 JUMPI DUP1 PUSH4 0x81D12C58 EQ PUSH2 0x15B JUMPI DUP1 PUSH4 0x82FDE093 EQ PUSH2 0x19C JUMPI JUMPDEST PUSH1 0x0 DUP1 REVERT JUMPDEST PUSH2 0xC6 PUSH1 0x4 DUP1 CALLDATASIZE SUB DUP2 ADD SWAP1 PUSH2 0xC1 SWAP2 SWAP1 PUSH2 0xB1F JUMP JUMPDEST PUSH2 0x2A9 JUMP JUMPDEST STOP JUMPDEST CALLVALUE DUP1 ISZERO PUSH2 0xD4 JUMPI PUSH1 0x0 DUP1 REVERT JUMPDEST POP PUSH2 0xEF PUSH1 0x4 DUP1 CALLDATASIZE SUB DUP2 ADD SWAP1 PUSH2 0xEA SWAP2 SWAP1 PUSH2 0xA83 JUMP JUMPDEST PUSH2 0x399 JUMP JUMPDEST PUSH1 0x40 MLOAD PUSH2 0xFC SWAP2 SWAP1 PUSH2 0xBCD JUMP JUMPDEST PUSH1 0x40 MLOAD DUP1 SWAP2 SUB SWAP1 RETURN JUMPDEST CALLVALUE DUP1 ISZERO PUSH2 0x111 JUMPI PUSH1 0x0 DUP1 REVERT JUMPDEST POP PUSH2 0x11A PUSH2 0x3B9 JUMP JUMPDEST PUSH1 0x40 MLOAD PUSH2 0x127 SWAP2 SWAP1 PUSH2 0xBB2 JUMP JUMPDEST PUSH1 0x40 MLOAD DUP1 SWAP2 SUB SWAP1 RETURN JUMPDEST CALLVALUE DUP1 ISZERO PUSH2 0x13C JUMPI PUSH1 0x0 DUP1 REVERT JUMPDEST POP PUSH2 0x145 PUSH2 0x3DF JUMP JUMPDEST PUSH1 0x40 MLOAD PUSH2 0x152 SWAP2 SWAP1 PUSH2 0xBE8 JUMP JUMPDEST PUSH1 0x40 MLOAD DUP1 SWAP2 SUB SWAP1 RETURN JUMPDEST CALLVALUE DUP1 ISZERO PUSH2 0x167 JUMPI PUSH1 0x0 DUP1 REVERT JUMPDEST POP PUSH2 0x182 PUSH1 0x4 DUP1 CALLDATASIZE SUB DUP2 ADD SWAP1 PUSH2 0x17D SWAP2 SWAP1 PUSH2 0xB1F JUMP JUMPDEST PUSH2 0x46D JUMP JUMPDEST PUSH1 0x40 MLOAD PUSH2 0x193 SWAP6 SWAP5 SWAP4 SWAP3 SWAP2 SWAP1 PUSH2 0xC72 JUMP JUMPDEST PUSH1 0x40 MLOAD DUP1 SWAP2 SUB SWAP1 RETURN JUMPDEST CALLVALUE DUP1 ISZERO PUSH2 0x1A8 JUMPI PUSH1 0x0 DUP1 REVERT JUMPDEST POP PUSH2 0x1B1 PUSH2 0x568 JUMP JUMPDEST PUSH1 0x40 MLOAD PUSH2 0x1BE SWAP2 SWAP1 PUSH2 0xCCC JUMP JUMPDEST PUSH1 0x40 MLOAD DUP1 SWAP2 SUB SWAP1 RETURN JUMPDEST CALLVALUE DUP1 ISZERO PUSH2 0x1D3 JUMPI PUSH1 0x0 DUP1 REVERT JUMPDEST POP PUSH2 0x1EE PUSH1 0x4 DUP1 CALLDATASIZE SUB DUP2 ADD SWAP1 PUSH2 0x1E9 SWAP2 SWAP1 PUSH2 0xAB0 JUMP JUMPDEST PUSH2 0x56E JUMP JUMPDEST STOP JUMPDEST CALLVALUE DUP1 ISZERO PUSH2 0x1FC JUMPI PUSH1 0x0 DUP1 REVERT JUMPDEST POP PUSH2 0x205 PUSH2 0x696 JUMP JUMPDEST PUSH1 0x40 MLOAD PUSH2 0x212 SWAP2 SWAP1 PUSH2 0xCCC JUMP JUMPDEST PUSH1 0x40 MLOAD DUP1 SWAP2 SUB SWAP1 RETURN JUMPDEST CALLVALUE DUP1 ISZERO PUSH2 0x227 JUMPI PUSH1 0x0 DUP1 REVERT JUMPDEST POP PUSH2 0x230 PUSH2 0x69C JUMP JUMPDEST PUSH1 0x40 MLOAD PUSH2 0x242 SWAP7 SWAP6 SWAP5 SWAP4 SWAP3 SWAP2 SWAP1 PUSH2 0xC0A JUMP JUMPDEST PUSH1 0x40 MLOAD DUP1 SWAP2 SUB SWAP1 RETURN JUMPDEST PUSH2 0x253 PUSH2 0x777 JUMP JUMPDEST STOP JUMPDEST CALLVALUE DUP1 ISZERO PUSH2 0x261 JUMPI PUSH1 0x0 DUP1 REVERT JUMPDEST POP PUSH2 0x27C PUSH1 0x4 DUP1 CALLDATASIZE SUB DUP2 ADD SWAP1 PUSH2 0x277 SWAP2 SWAP1 PUSH2 0xB1F JUMP JUMPDEST PUSH2 0x7F3 JUMP JUMPDEST STOP JUMPDEST CALLVALUE DUP1 ISZERO PUSH2 0x28A JUMPI PUSH1 0x0 DUP1 REVERT JUMPDEST POP PUSH2 0x293 PUSH2 0x940 JUMP JUMPDEST PUSH1 0x40 MLOAD PUSH2 0x2A0 SWAP2 SWAP1 PUSH2 0xCCC JUMP JUMPDEST PUSH1 0x40 MLOAD DUP1 SWAP2 SUB SWAP1 RETURN JUMPDEST PUSH1 0x0 PUSH1 0x3 DUP3 DUP2 SLOAD DUP2 LT PUSH2 0x2BF JUMPI PUSH2 0x2BE PUSH2 0xF4D JUMP JUMPDEST JUMPDEST SWAP1 PUSH1 0x0 MSTORE PUSH1 0x20 PUSH1 0x0 KECCAK256 SWAP1 PUSH1 0x5 MUL ADD SWAP1 POP PUSH1 0x2 PUSH1 0x6 SLOAD PUSH2 0x2DE SWAP2 SWAP1 PUSH2 0xD59 JUMP JUMPDEST DUP2 PUSH1 0x4 ADD SLOAD GT PUSH2 0x2ED JUMPI PUSH1 0x0 DUP1 REVERT JUMPDEST DUP1 PUSH1 0x2 ADD PUSH1 0x14 SWAP1 SLOAD SWAP1 PUSH2 0x100 EXP SWAP1 DIV PUSH1 0xFF AND ISZERO PUSH2 0x309 JUMPI PUSH1 0x0 DUP1 REVERT JUMPDEST DUP1 PUSH1 0x2 ADD PUSH1 0x0 SWAP1 SLOAD SWAP1 PUSH2 0x100 EXP SWAP1 DIV PUSH20 0xFFFFFFFFFFFFFFFFFFFFFFFFFFFFFFFFFFFFFFFF AND PUSH20 0xFFFFFFFFFFFFFFFFFFFFFFFFFFFFFFFFFFFFFFFF AND PUSH2 0x8FC DUP3 PUSH1 0x1 ADD SLOAD SWAP1 DUP2 ISZERO MUL SWAP1 PUSH1 0x40 MLOAD PUSH1 0x0 PUSH1 0x40 MLOAD DUP1 DUP4 SUB DUP2 DUP6 DUP9 DUP9 CALL SWAP4 POP POP POP POP ISZERO DUP1 ISZERO PUSH2 0x377 JUMPI RETURNDATASIZE PUSH1 0x0 DUP1 RETURNDATACOPY RETURNDATASIZE PUSH1 0x0 REVERT JUMPDEST POP PUSH1 0x1 DUP2 PUSH1 0x2 ADD PUSH1 0x14 PUSH2 0x100 EXP DUP2 SLOAD DUP2 PUSH1 0xFF MUL NOT AND SWAP1 DUP4 ISZERO ISZERO MUL OR SWAP1 SSTORE POP POP POP JUMP JUMPDEST PUSH1 0x5 PUSH1 0x20 MSTORE DUP1 PUSH1 0x0 MSTORE PUSH1 0x40 PUSH1 0x0 KECCAK256 PUSH1 0x0 SWAP2 POP SLOAD SWAP1 PUSH2 0x100 EXP SWAP1 DIV PUSH1 0xFF AND DUP2 JUMP JUMPDEST PUSH1 0x1 PUSH1 0x0 SWAP1 SLOAD SWAP1 PUSH2 0x100 EXP SWAP1 DIV PUSH20 0xFFFFFFFFFFFFFFFFFFFFFFFFFFFFFFFFFFFFFFFF AND DUP2 JUMP JUMPDEST PUSH1 0x0 DUP1 SLOAD PUSH2 0x3EC SWAP1 PUSH2 0xE14 JUMP JUMPDEST DUP1 PUSH1 0x1F ADD PUSH1 0x20 DUP1 SWAP2 DIV MUL PUSH1 0x20 ADD PUSH1 0x40 MLOAD SWAP1 DUP2 ADD PUSH1 0x40 MSTORE DUP1 SWAP3 SWAP2 SWAP1 DUP2 DUP2 MSTORE PUSH1 0x20 ADD DUP3 DUP1 SLOAD PUSH2 0x418 SWAP1 PUSH2 0xE14 JUMP JUMPDEST DUP1 ISZERO PUSH2 0x465 JUMPI DUP1 PUSH1 0x1F LT PUSH2 0x43A JUMPI PUSH2 0x100 DUP1 DUP4 SLOAD DIV MUL DUP4 MSTORE SWAP2 PUSH1 0x20 ADD SWAP2 PUSH2 0x465 JUMP JUMPDEST DUP3 ADD SWAP2 SWAP1 PUSH1 0x0 MSTORE PUSH1 0x20 PUSH1 0x0 KECCAK256 SWAP1 JUMPDEST DUP2 SLOAD DUP2 MSTORE SWAP1 PUSH1 0x1 ADD SWAP1 PUSH1 0x20 ADD DUP1 DUP4 GT PUSH2 0x448 JUMPI DUP3 SWAP1 SUB PUSH1 0x1F AND DUP3 ADD SWAP2 JUMPDEST POP POP POP POP POP DUP2 JUMP JUMPDEST PUSH1 0x3 DUP2 DUP2 SLOAD DUP2 LT PUSH2 0x47D JUMPI PUSH1 0x0 DUP1 REVERT JUMPDEST SWAP1 PUSH1 0x0 MSTORE PUSH1 0x20 PUSH1 0x0 KECCAK256 SWAP1 PUSH1 0x5 MUL ADD PUSH1 0x0 SWAP2 POP SWAP1 POP DUP1 PUSH1 0x0 ADD DUP1 SLOAD PUSH2 0x4A0 SWAP1 PUSH2 0xE14 JUMP JUMPDEST DUP1 PUSH1 0x1F ADD PUSH1 0x20 DUP1 SWAP2 DIV MUL PUSH1 0x20 ADD PUSH1 0x40 MLOAD SWAP1 DUP2 ADD PUSH1 0x40 MSTORE DUP1 SWAP3 SWAP2 SWAP1 DUP2 DUP2 MSTORE PUSH1 0x20 ADD DUP3 DUP1 SLOAD PUSH2 0x4CC SWAP1 PUSH2 0xE14 JUMP JUMPDEST DUP1 ISZERO PUSH2 0x519 JUMPI DUP1 PUSH1 0x1F LT PUSH2 0x4EE JUMPI PUSH2 0x100 DUP1 DUP4 SLOAD DIV MUL DUP4 MSTORE SWAP2 PUSH1 0x20 ADD SWAP2 PUSH2 0x519 JUMP JUMPDEST DUP3 ADD SWAP2 SWAP1 PUSH1 0x0 MSTORE PUSH1 0x20 PUSH1 0x0 KECCAK256 SWAP1 JUMPDEST DUP2 SLOAD DUP2 MSTORE SWAP1 PUSH1 0x1 ADD SWAP1 PUSH1 0x20 ADD DUP1 DUP4 GT PUSH2 0x4FC JUMPI DUP3 SWAP1 SUB PUSH1 0x1F AND DUP3 ADD SWAP2 JUMPDEST POP POP POP POP POP SWAP1 DUP1 PUSH1 0x1 ADD SLOAD SWAP1 DUP1 PUSH1 0x2 ADD PUSH1 0x0 SWAP1 SLOAD SWAP1 PUSH2 0x100 EXP SWAP1 DIV PUSH20 0xFFFFFFFFFFFFFFFFFFFFFFFFFFFFFFFFFFFFFFFF AND SWAP1 DUP1 PUSH1 0x2 ADD PUSH1 0x14 SWAP1 SLOAD SWAP1 PUSH2 0x100 EXP SWAP1 DIV PUSH1 0xFF AND SWAP1 DUP1 PUSH1 0x4 ADD SLOAD SWAP1 POP DUP6 JUMP JUMPDEST PUSH1 0x6 SLOAD DUP2 JUMP JUMPDEST PUSH1 0x1 PUSH1 0x0 SWAP1 SLOAD SWAP1 PUSH2 0x100 EXP SWAP1 DIV PUSH20 0xFFFFFFFFFFFFFFFFFFFFFFFFFFFFFFFFFFFFFFFF AND PUSH20 0xFFFFFFFFFFFFFFFFFFFFFFFFFFFFFFFFFFFFFFFF AND CALLER PUSH20 0xFFFFFFFFFFFFFFFFFFFFFFFFFFFFFFFFFFFFFFFF AND EQ PUSH2 0x5C8 JUMPI PUSH1 0x0 DUP1 REVERT JUMPDEST PUSH1 0x0 PUSH1 0x3 PUSH1 0x1 DUP2 PUSH1 0x1 DUP2 SLOAD ADD DUP1 DUP3 SSTORE DUP1 SWAP2 POP POP SUB SWAP1 PUSH1 0x0 MSTORE PUSH1 0x20 PUSH1 0x0 KECCAK256 SWAP1 PUSH1 0x5 MUL ADD SWAP1 POP DUP4 DUP2 PUSH1 0x0 ADD SWAP1 DUP1 MLOAD SWAP1 PUSH1 0x20 ADD SWAP1 PUSH2 0x604 SWAP3 SWAP2 SWAP1 PUSH2 0x946 JUMP JUMPDEST POP DUP3 DUP2 PUSH1 0x1 ADD DUP2 SWAP1 SSTORE POP DUP2 DUP2 PUSH1 0x2 ADD PUSH1 0x0 PUSH2 0x100 EXP DUP2 SLOAD DUP2 PUSH20 0xFFFFFFFFFFFFFFFFFFFFFFFFFFFFFFFFFFFFFFFF MUL NOT AND SWAP1 DUP4 PUSH20 0xFFFFFFFFFFFFFFFFFFFFFFFFFFFFFFFFFFFFFFFF AND MUL OR SWAP1 SSTORE POP PUSH1 0x0 DUP2 PUSH1 0x2 ADD PUSH1 0x14 PUSH2 0x100 EXP DUP2 SLOAD DUP2 PUSH1 0xFF MUL NOT AND SWAP1 DUP4 ISZERO ISZERO MUL OR SWAP1 SSTORE POP PUSH1 0x0 DUP2 PUSH1 0x4 ADD DUP2 SWAP1 SSTORE POP PUSH1 0x4 PUSH1 0x0 DUP2 SLOAD DUP1 SWAP3 SWAP2 SWAP1 PUSH2 0x68B SWAP1 PUSH2 0xE77 JUMP JUMPDEST SWAP2 SWAP1 POP SSTORE POP POP POP POP POP JUMP JUMPDEST PUSH1 0x2 SLOAD DUP2 JUMP JUMPDEST PUSH1 0x60 PUSH1 0x0 DUP1 PUSH1 0x0 DUP1 PUSH1 0x0 DUP1 PUSH1 0x1 PUSH1 0x0 SWAP1 SLOAD SWAP1 PUSH2 0x100 EXP SWAP1 DIV PUSH20 0xFFFFFFFFFFFFFFFFFFFFFFFFFFFFFFFFFFFFFFFF AND PUSH1 0x2 SLOAD PUSH1 0x3 DUP1 SLOAD SWAP1 POP PUSH1 0x6 SLOAD SELFBALANCE DUP6 DUP1 SLOAD PUSH2 0x6E3 SWAP1 PUSH2 0xE14 JUMP JUMPDEST DUP1 PUSH1 0x1F ADD PUSH1 0x20 DUP1 SWAP2 DIV MUL PUSH1 0x20 ADD PUSH1 0x40 MLOAD SWAP1 DUP2 ADD PUSH1 0x40 MSTORE DUP1 SWAP3 SWAP2 SWAP1 DUP2 DUP2 MSTORE PUSH1 0x20 ADD DUP3 DUP1 SLOAD PUSH2 0x70F SWAP1 PUSH2 0xE14 JUMP JUMPDEST DUP1 ISZERO PUSH2 0x75C JUMPI DUP1 PUSH1 0x1F LT PUSH2 0x731 JUMPI PUSH2 0x100 DUP1 DUP4 SLOAD DIV MUL DUP4 MSTORE SWAP2 PUSH1 0x20 ADD SWAP2 PUSH2 0x75C JUMP JUMPDEST DUP3 ADD SWAP2 SWAP1 PUSH1 0x0 MSTORE PUSH1 0x20 PUSH1 0x0 KECCAK256 SWAP1 JUMPDEST DUP2 SLOAD DUP2 MSTORE SWAP1 PUSH1 0x1 ADD SWAP1 PUSH1 0x20 ADD DUP1 DUP4 GT PUSH2 0x73F JUMPI DUP3 SWAP1 SUB PUSH1 0x1F AND DUP3 ADD SWAP2 JUMPDEST POP POP POP POP POP SWAP6 POP SWAP6 POP SWAP6 POP SWAP6 POP SWAP6 POP SWAP6 POP SWAP6 POP SWAP1 SWAP2 SWAP3 SWAP4 SWAP5 SWAP6 JUMP JUMPDEST PUSH1 0x2 SLOAD CALLVALUE LT PUSH2 0x7F1 JUMPI PUSH1 0x1 PUSH1 0x5 PUSH1 0x0 CALLER PUSH20 0xFFFFFFFFFFFFFFFFFFFFFFFFFFFFFFFFFFFFFFFF AND PUSH20 0xFFFFFFFFFFFFFFFFFFFFFFFFFFFFFFFFFFFFFFFF AND DUP2 MSTORE PUSH1 0x20 ADD SWAP1 DUP2 MSTORE PUSH1 0x20 ADD PUSH1 0x0 KECCAK256 PUSH1 0x0 PUSH2 0x100 EXP DUP2 SLOAD DUP2 PUSH1 0xFF MUL NOT AND SWAP1 DUP4 ISZERO ISZERO MUL OR SWAP1 SSTORE POP PUSH1 0x6 PUSH1 0x0 DUP2 SLOAD DUP1 SWAP3 SWAP2 SWAP1 PUSH2 0x7EB SWAP1 PUSH2 0xE77 JUMP JUMPDEST SWAP2 SWAP1 POP SSTORE POP JUMPDEST JUMP JUMPDEST PUSH1 0x5 PUSH1 0x0 CALLER PUSH20 0xFFFFFFFFFFFFFFFFFFFFFFFFFFFFFFFFFFFFFFFF AND PUSH20 0xFFFFFFFFFFFFFFFFFFFFFFFFFFFFFFFFFFFFFFFF AND DUP2 MSTORE PUSH1 0x20 ADD SWAP1 DUP2 MSTORE PUSH1 0x20 ADD PUSH1 0x0 KECCAK256 PUSH1 0x0 SWAP1 SLOAD SWAP1 PUSH2 0x100 EXP SWAP1 DIV PUSH1 0xFF AND PUSH2 0x849 JUMPI PUSH1 0x0 DUP1 REVERT JUMPDEST PUSH1 0x0 PUSH1 0x3 DUP3 DUP2 SLOAD DUP2 LT PUSH2 0x85F JUMPI PUSH2 0x85E PUSH2 0xF4D JUMP JUMPDEST JUMPDEST SWAP1 PUSH1 0x0 MSTORE PUSH1 0x20 PUSH1 0x0 KECCAK256 SWAP1 PUSH1 0x5 MUL ADD SWAP1 POP DUP1 PUSH1 0x3 ADD PUSH1 0x0 CALLER PUSH20 0xFFFFFFFFFFFFFFFFFFFFFFFFFFFFFFFFFFFFFFFF AND PUSH20 0xFFFFFFFFFFFFFFFFFFFFFFFFFFFFFFFFFFFFFFFF AND DUP2 MSTORE PUSH1 0x20 ADD SWAP1 DUP2 MSTORE PUSH1 0x20 ADD PUSH1 0x0 KECCAK256 PUSH1 0x0 SWAP1 SLOAD SWAP1 PUSH2 0x100 EXP SWAP1 DIV PUSH1 0xFF AND ISZERO PUSH2 0x8C8 JUMPI PUSH1 0x0 DUP1 REVERT JUMPDEST PUSH1 0x1 DUP2 PUSH1 0x3 ADD PUSH1 0x0 CALLER PUSH20 0xFFFFFFFFFFFFFFFFFFFFFFFFFFFFFFFFFFFFFFFF AND PUSH20 0xFFFFFFFFFFFFFFFFFFFFFFFFFFFFFFFFFFFFFFFF AND DUP2 MSTORE PUSH1 0x20 ADD SWAP1 DUP2 MSTORE PUSH1 0x20 ADD PUSH1 0x0 KECCAK256 PUSH1 0x0 PUSH2 0x100 EXP DUP2 SLOAD DUP2 PUSH1 0xFF MUL NOT AND SWAP1 DUP4 ISZERO ISZERO MUL OR SWAP1 SSTORE POP DUP1 PUSH1 0x4 ADD PUSH1 0x0 DUP2 SLOAD DUP1 SWAP3 SWAP2 SWAP1 PUSH2 0x937 SWAP1 PUSH2 0xE77 JUMP JUMPDEST SWAP2 SWAP1 POP SSTORE POP POP POP JUMP JUMPDEST PUSH1 0x4 SLOAD DUP2 JUMP JUMPDEST DUP3 DUP1 SLOAD PUSH2 0x952 SWAP1 PUSH2 0xE14 JUMP JUMPDEST SWAP1 PUSH1 0x0 MSTORE PUSH1 0x20 PUSH1 0x0 KECCAK256 SWAP1 PUSH1 0x1F ADD PUSH1 0x20 SWAP1 DIV DUP2 ADD SWAP3 DUP3 PUSH2 0x974 JUMPI PUSH1 0x0 DUP6 SSTORE PUSH2 0x9BB JUMP JUMPDEST DUP3 PUSH1 0x1F LT PUSH2 0x98D JUMPI DUP1 MLOAD PUSH1 0xFF NOT AND DUP4 DUP1 ADD OR DUP6 SSTORE PUSH2 0x9BB JUMP JUMPDEST DUP3 DUP1 ADD PUSH1 0x1 ADD DUP6 SSTORE DUP3 ISZERO PUSH2 0x9BB JUMPI SWAP2 DUP3 ADD JUMPDEST DUP3 DUP2 GT ISZERO PUSH2 0x9BA JUMPI DUP3 MLOAD DUP3 SSTORE SWAP2 PUSH1 0x20 ADD SWAP2 SWAP1 PUSH1 0x1 ADD SWAP1 PUSH2 0x99F JUMP JUMPDEST JUMPDEST POP SWAP1 POP PUSH2 0x9C8 SWAP2 SWAP1 PUSH2 0x9CC JUMP JUMPDEST POP SWAP1 JUMP JUMPDEST JUMPDEST DUP1 DUP3 GT ISZERO PUSH2 0x9E5 JUMPI PUSH1 0x0 DUP2 PUSH1 0x0 SWAP1 SSTORE POP PUSH1 0x1 ADD PUSH2 0x9CD JUMP JUMPDEST POP SWAP1 JUMP JUMPDEST PUSH1 0x0 PUSH2 0x9FC PUSH2 0x9F7 DUP5 PUSH2 0xD0C JUMP JUMPDEST PUSH2 0xCE7 JUMP JUMPDEST SWAP1 POP DUP3 DUP2 MSTORE PUSH1 0x20 DUP2 ADD DUP5 DUP5 DUP5 ADD GT ISZERO PUSH2 0xA18 JUMPI PUSH2 0xA17 PUSH2 0xFB0 JUMP JUMPDEST JUMPDEST PUSH2 0xA23 DUP5 DUP3 DUP6 PUSH2 0xDD2 JUMP JUMPDEST POP SWAP4 SWAP3 POP POP POP JUMP JUMPDEST PUSH1 0x0 DUP2 CALLDATALOAD SWAP1 POP PUSH2 0xA3A DUP2 PUSH2 0xFD0 JUMP JUMPDEST SWAP3 SWAP2 POP POP JUMP JUMPDEST PUSH1 0x0 DUP3 PUSH1 0x1F DUP4 ADD SLT PUSH2 0xA55 JUMPI PUSH2 0xA54 PUSH2 0xFAB JUMP JUMPDEST JUMPDEST DUP2 CALLDATALOAD PUSH2 0xA65 DUP5 DUP3 PUSH1 0x20 DUP7 ADD PUSH2 0x9E9 JUMP JUMPDEST SWAP2 POP POP SWAP3 SWAP2 POP POP JUMP JUMPDEST PUSH1 0x0 DUP2 CALLDATALOAD SWAP1 POP PUSH2 0xA7D DUP2 PUSH2 0xFE7 JUMP JUMPDEST SWAP3 SWAP2 POP POP JUMP JUMPDEST PUSH1 0x0 PUSH1 0x20 DUP3 DUP5 SUB SLT ISZERO PUSH2 0xA99 JUMPI PUSH2 0xA98 PUSH2 0xFBA JUMP JUMPDEST JUMPDEST PUSH1 0x0 PUSH2 0xAA7 DUP5 DUP3 DUP6 ADD PUSH2 0xA2B JUMP JUMPDEST SWAP2 POP POP SWAP3 SWAP2 POP POP JUMP JUMPDEST PUSH1 0x0 DUP1 PUSH1 0x0 PUSH1 0x60 DUP5 DUP7 SUB SLT ISZERO PUSH2 0xAC9 JUMPI PUSH2 0xAC8 PUSH2 0xFBA JUMP JUMPDEST JUMPDEST PUSH1 0x0 DUP5 ADD CALLDATALOAD PUSH8 0xFFFFFFFFFFFFFFFF DUP2 GT ISZERO PUSH2 0xAE7 JUMPI PUSH2 0xAE6 PUSH2 0xFB5 JUMP JUMPDEST JUMPDEST PUSH2 0xAF3 DUP7 DUP3 DUP8 ADD PUSH2 0xA40 JUMP JUMPDEST SWAP4 POP POP PUSH1 0x20 PUSH2 0xB04 DUP7 DUP3 DUP8 ADD PUSH2 0xA6E JUMP JUMPDEST SWAP3 POP POP PUSH1 0x40 PUSH2 0xB15 DUP7 DUP3 DUP8 ADD PUSH2 0xA2B JUMP JUMPDEST SWAP2 POP POP SWAP3 POP SWAP3 POP SWAP3 JUMP JUMPDEST PUSH1 0x0 PUSH1 0x20 DUP3 DUP5 SUB SLT ISZERO PUSH2 0xB35 JUMPI PUSH2 0xB34 PUSH2 0xFBA JUMP JUMPDEST JUMPDEST PUSH1 0x0 PUSH2 0xB43 DUP5 DUP3 DUP6 ADD PUSH2 0xA6E JUMP JUMPDEST SWAP2 POP POP SWAP3 SWAP2 POP POP JUMP JUMPDEST PUSH2 0xB55 DUP2 PUSH2 0xD8A JUMP JUMPDEST DUP3 MSTORE POP POP JUMP JUMPDEST PUSH2 0xB64 DUP2 PUSH2 0xD9C JUMP JUMPDEST DUP3 MSTORE POP POP JUMP JUMPDEST PUSH1 0x0 PUSH2 0xB75 DUP3 PUSH2 0xD3D JUMP JUMPDEST PUSH2 0xB7F DUP2 DUP6 PUSH2 0xD48 JUMP JUMPDEST SWAP4 POP PUSH2 0xB8F DUP2 DUP6 PUSH1 0x20 DUP7 ADD PUSH2 0xDE1 JUMP JUMPDEST PUSH2 0xB98 DUP2 PUSH2 0xFBF JUMP JUMPDEST DUP5 ADD SWAP2 POP POP SWAP3 SWAP2 POP POP JUMP JUMPDEST PUSH2 0xBAC DUP2 PUSH2 0xDC8 JUMP JUMPDEST DUP3 MSTORE POP POP JUMP JUMPDEST PUSH1 0x0 PUSH1 0x20 DUP3 ADD SWAP1 POP PUSH2 0xBC7 PUSH1 0x0 DUP4 ADD DUP5 PUSH2 0xB4C JUMP JUMPDEST SWAP3 SWAP2 POP POP JUMP JUMPDEST PUSH1 0x0 PUSH1 0x20 DUP3 ADD SWAP1 POP PUSH2 0xBE2 PUSH1 0x0 DUP4 ADD DUP5 PUSH2 0xB5B JUMP JUMPDEST SWAP3 SWAP2 POP POP JUMP JUMPDEST PUSH1 0x0 PUSH1 0x20 DUP3 ADD SWAP1 POP DUP2 DUP2 SUB PUSH1 0x0 DUP4 ADD MSTORE PUSH2 0xC02 DUP2 DUP5 PUSH2 0xB6A JUMP JUMPDEST SWAP1 POP SWAP3 SWAP2 POP POP JUMP JUMPDEST PUSH1 0x0 PUSH1 0xC0 DUP3 ADD SWAP1 POP DUP2 DUP2 SUB PUSH1 0x0 DUP4 ADD MSTORE PUSH2 0xC24 DUP2 DUP10 PUSH2 0xB6A JUMP JUMPDEST SWAP1 POP PUSH2 0xC33 PUSH1 0x20 DUP4 ADD DUP9 PUSH2 0xB4C JUMP JUMPDEST PUSH2 0xC40 PUSH1 0x40 DUP4 ADD DUP8 PUSH2 0xBA3 JUMP JUMPDEST PUSH2 0xC4D PUSH1 0x60 DUP4 ADD DUP7 PUSH2 0xBA3 JUMP JUMPDEST PUSH2 0xC5A PUSH1 0x80 DUP4 ADD DUP6 PUSH2 0xBA3 JUMP JUMPDEST PUSH2 0xC67 PUSH1 0xA0 DUP4 ADD DUP5 PUSH2 0xBA3 JUMP JUMPDEST SWAP8 SWAP7 POP POP POP POP POP POP POP JUMP JUMPDEST PUSH1 0x0 PUSH1 0xA0 DUP3 ADD SWAP1 POP DUP2 DUP2 SUB PUSH1 0x0 DUP4 ADD MSTORE PUSH2 0xC8C DUP2 DUP9 PUSH2 0xB6A JUMP JUMPDEST SWAP1 POP PUSH2 0xC9B PUSH1 0x20 DUP4 ADD DUP8 PUSH2 0xBA3 JUMP JUMPDEST PUSH2 0xCA8 PUSH1 0x40 DUP4 ADD DUP7 PUSH2 0xB4C JUMP JUMPDEST PUSH2 0xCB5 PUSH1 0x60 DUP4 ADD DUP6 PUSH2 0xB5B JUMP JUMPDEST PUSH2 0xCC2 PUSH1 0x80 DUP4 ADD DUP5 PUSH2 0xBA3 JUMP JUMPDEST SWAP7 SWAP6 POP POP POP POP POP POP JUMP JUMPDEST PUSH1 0x0 PUSH1 0x20 DUP3 ADD SWAP1 POP PUSH2 0xCE1 PUSH1 0x0 DUP4 ADD DUP5 PUSH2 0xBA3 JUMP JUMPDEST SWAP3 SWAP2 POP POP JUMP JUMPDEST PUSH1 0x0 PUSH2 0xCF1 PUSH2 0xD02 JUMP JUMPDEST SWAP1 POP PUSH2 0xCFD DUP3 DUP3 PUSH2 0xE46 JUMP JUMPDEST SWAP2 SWAP1 POP JUMP JUMPDEST PUSH1 0x0 PUSH1 0x40 MLOAD SWAP1 POP SWAP1 JUMP JUMPDEST PUSH1 0x0 PUSH8 0xFFFFFFFFFFFFFFFF DUP3 GT ISZERO PUSH2 0xD27 JUMPI PUSH2 0xD26 PUSH2 0xF7C JUMP JUMPDEST JUMPDEST PUSH2 0xD30 DUP3 PUSH2 0xFBF JUMP JUMPDEST SWAP1 POP PUSH1 0x20 DUP2 ADD SWAP1 POP SWAP2 SWAP1 POP JUMP JUMPDEST PUSH1 0x0 DUP2 MLOAD SWAP1 POP SWAP2 SWAP1 POP JUMP JUMPDEST PUSH1 0x0 DUP3 DUP3 MSTORE PUSH1 0x20 DUP3 ADD SWAP1 POP SWAP3 SWAP2 POP POP JUMP JUMPDEST PUSH1 0x0 PUSH2 0xD64 DUP3 PUSH2 0xDC8 JUMP JUMPDEST SWAP2 POP PUSH2 0xD6F DUP4 PUSH2 0xDC8 JUMP JUMPDEST SWAP3 POP DUP3 PUSH2 0xD7F JUMPI PUSH2 0xD7E PUSH2 0xEEF JUMP JUMPDEST JUMPDEST DUP3 DUP3 DIV SWAP1 POP SWAP3 SWAP2 POP POP JUMP JUMPDEST PUSH1 0x0 PUSH2 0xD95 DUP3 PUSH2 0xDA8 JUMP JUMPDEST SWAP1 POP SWAP2 SWAP1 POP JUMP JUMPDEST PUSH1 0x0 DUP2 ISZERO ISZERO SWAP1 POP SWAP2 SWAP1 POP JUMP JUMPDEST PUSH1 0x0 PUSH20 0xFFFFFFFFFFFFFFFFFFFFFFFFFFFFFFFFFFFFFFFF DUP3 AND SWAP1 POP SWAP2 SWAP1 POP JUMP JUMPDEST PUSH1 0x0 DUP2 SWAP1 POP SWAP2 SWAP1 POP JUMP JUMPDEST DUP3 DUP2 DUP4 CALLDATACOPY PUSH1 0x0 DUP4 DUP4 ADD MSTORE POP POP POP JUMP JUMPDEST PUSH1 0x0 JUMPDEST DUP4 DUP2 LT ISZERO PUSH2 0xDFF JUMPI DUP1 DUP3 ADD MLOAD DUP2 DUP5 ADD MSTORE PUSH1 0x20 DUP2 ADD SWAP1 POP PUSH2 0xDE4 JUMP JUMPDEST DUP4 DUP2 GT ISZERO PUSH2 0xE0E JUMPI PUSH1 0x0 DUP5 DUP5 ADD MSTORE JUMPDEST POP POP POP POP JUMP JUMPDEST PUSH1 0x0 PUSH1 0x2 DUP3 DIV SWAP1 POP PUSH1 0x1 DUP3 AND DUP1 PUSH2 0xE2C JUMPI PUSH1 0x7F DUP3 AND SWAP2 POP JUMPDEST PUSH1 0x20 DUP3 LT DUP2 EQ ISZERO PUSH2 0xE40 JUMPI PUSH2 0xE3F PUSH2 0xF1E JUMP JUMPDEST JUMPDEST POP SWAP2 SWAP1 POP JUMP JUMPDEST PUSH2 0xE4F DUP3 PUSH2 0xFBF JUMP JUMPDEST DUP2 ADD DUP2 DUP2 LT PUSH8 0xFFFFFFFFFFFFFFFF DUP3 GT OR ISZERO PUSH2 0xE6E JUMPI PUSH2 0xE6D PUSH2 0xF7C JUMP JUMPDEST JUMPDEST DUP1 PUSH1 0x40 MSTORE POP POP POP JUMP JUMPDEST PUSH1 0x0 PUSH2 0xE82 DUP3 PUSH2 0xDC8 JUMP JUMPDEST SWAP2 POP PUSH32 0xFFFFFFFFFFFFFFFFFFFFFFFFFFFFFFFFFFFFFFFFFFFFFFFFFFFFFFFFFFFFFFFF DUP3 EQ ISZERO PUSH2 0xEB5 JUMPI PUSH2 0xEB4 PUSH2 0xEC0 JUMP JUMPDEST JUMPDEST PUSH1 0x1 DUP3 ADD SWAP1 POP SWAP2 SWAP1 POP JUMP JUMPDEST PUSH32 0x4E487B7100000000000000000000000000000000000000000000000000000000 PUSH1 0x0 MSTORE PUSH1 0x11 PUSH1 0x4 MSTORE PUSH1 0x24 PUSH1 0x0 REVERT JUMPDEST PUSH32 0x4E487B7100000000000000000000000000000000000000000000000000000000 PUSH1 0x0 MSTORE PUSH1 0x12 PUSH1 0x4 MSTORE PUSH1 0x24 PUSH1 0x0 REVERT JUMPDEST PUSH32 0x4E487B7100000000000000000000000000000000000000000000000000000000 PUSH1 0x0 MSTORE PUSH1 0x22 PUSH1 0x4 MSTORE PUSH1 0x24 PUSH1 0x0 REVERT JUMPDEST PUSH32 0x4E487B7100000000000000000000000000000000000000000000000000000000 PUSH1 0x0 MSTORE PUSH1 0x32 PUSH1 0x4 MSTORE PUSH1 0x24 PUSH1 0x0 REVERT JUMPDEST PUSH32 0x4E487B7100000000000000000000000000000000000000000000000000000000 PUSH1 0x0 MSTORE PUSH1 0x41 PUSH1 0x4 MSTORE PUSH1 0x24 PUSH1 0x0 REVERT JUMPDEST PUSH1 0x0 DUP1 REVERT JUMPDEST PUSH1 0x0 DUP1 REVERT JUMPDEST PUSH1 0x0 DUP1 REVERT JUMPDEST PUSH1 0x0 DUP1 REVERT JUMPDEST PUSH1 0x0 PUSH1 0x1F NOT PUSH1 0x1F DUP4 ADD AND SWAP1 POP SWAP2 SWAP1 POP JUMP JUMPDEST PUSH2 0xFD9 DUP2 PUSH2 0xD8A JUMP JUMPDEST DUP2 EQ PUSH2 0xFE4 JUMPI PUSH1 0x0 DUP1 REVERT JUMPDEST POP JUMP JUMPDEST PUSH2 0xFF0 DUP2 PUSH2 0xDC8 JUMP JUMPDEST DUP2 EQ PUSH2 0xFFB JUMPI PUSH1 0x0 DUP1 REVERT JUMPDEST POP JUMP INVALID LOG2 PUSH5 0x6970667358 0x22 SLT KECCAK256 JUMPI 0xFB PUSH11 0x167D78B6057F9A5288AE85 DUP15 ADD PUSH29 0xF977B2EDA03D84C9B3843B3C25D44F64736F6C63430008070033000000 "},"gasEstimates":{"creation":{"codeDepositCost":"829600","executionCost":"infinite","totalCost":"infinite"},"external":{"approveRequest(uint256)":"infinite","approvers(address)":"2868","approversCount()":"2540","contribute()":"51024","createRequest(string,uint256,address)":"infinite","description()":"infinite","finalizeRequest(uint256)":"infinite","manager()":"2559","minimumContribution()":"2451","requests(uint256)":"infinite","requestsCount()":"2539","summary()":"infinite"}},"methodIdentifiers":{"approveRequest(uint256)":"d7d1bbdb","approvers(address)":"0a144391","approversCount()":"82fde093","contribute()":"d7bb99ba","createRequest(string,uint256,address)":"8a9cfd55","description()":"7284e416","finalizeRequest(uint256)":"03441006","manager()":"481c6a75","minimumContribution()":"937e09b1","requests(uint256)":"81d12c58","requestsCount()":"fbfa4b7f","summary()":"b16a867c"}},"storageLayout":{"storage":[{"astId":85,"contract":"CampaignFactory:Campaign","label":"description","offset":0,"slot":"0","type":"t_string_storage"},{"astId":87,"contract":"CampaignFactory:Campaign","label":"manager","offset":0,"slot":"1","type":"t_address"},{"astId":89,"contract":"CampaignFactory:Campaign","label":"minimumContribution","offset":0,"slot":"2","type":"t_uint256"},{"astId":93,"contract":"CampaignFactory:Campaign","label":"requests","offset":0,"slot":"3","type":"t_array(t_struct(Request)83_storage)dyn_storage"},{"astId":95,"contract":"CampaignFactory:Campaign","label":"requestsCount","offset":0,"slot":"4","type":"t_uint256"},{"astId":99,"contract":"CampaignFactory:Campaign","label":"approvers","offset":0,"slot":"5","type":"t_mapping(t_address,t_bool)"},{"astId":101,"contract":"CampaignFactory:Campaign","label":"approversCount","offset":0,"slot":"6","type":"t_uint256"}],"types":{"t_address":{"encoding":"inplace","label":"address","numberOfBytes":"20"},"t_array(t_struct(Request)83_storage)dyn_storage":{"base":"t_struct(Request)83_storage","encoding":"dynamic_array","label":"struct Campaign.Request[]","numberOfBytes":"32"},"t_bool":{"encoding":"inplace","label":"bool","numberOfBytes":"1"},"t_mapping(t_address,t_bool)":{"encoding":"mapping","key":"t_address","label":"mapping(address => bool)","numberOfBytes":"32","value":"t_bool"},"t_string_storage":{"encoding":"bytes","label":"string","numberOfBytes":"32"},"t_struct(Request)83_storage":{"encoding":"inplace","label":"struct Campaign.Request","members":[{"astId":70,"contract":"CampaignFactory:Campaign","label":"description","offset":0,"slot":"0","type":"t_string_storage"},{"astId":72,"contract":"CampaignFactory:Campaign","label":"value","offset":0,"slot":"1","type":"t_uint256"},{"astId":74,"contract":"CampaignFactory:Campaign","label":"recipient","offset":0,"slot":"2","type":"t_address"},{"astId":76,"contract":"CampaignFactory:Campaign","label":"complete","offset":20,"slot":"2","type":"t_bool"},{"astId":80,"contract":"CampaignFactory:Campaign","label":"approvals","offset":0,"slot":"3","type":"t_mapping(t_address,t_bool)"},{"astId":82,"contract":"CampaignFactory:Campaign","label":"approvalCount","offset":0,"slot":"4","type":"t_uint256"}],"numberOfBytes":"160"},"t_uint256":{"encoding":"inplace","label":"uint256","numberOfBytes":"32"}}},"userdoc":{"kind":"user","methods":{},"version":1}}